{
  "contractName": "Seed_Sale",
  "abi": [
    {
      "inputs": [
        {
          "internalType": "address",
          "name": "_val",
          "type": "address"
        }
      ],
      "stateMutability": "nonpayable",
      "type": "constructor"
    },
    {
      "anonymous": false,
      "inputs": [
        {
          "indexed": false,
          "internalType": "address",
          "name": "claimer",
          "type": "address"
        },
        {
          "indexed": false,
          "internalType": "uint256",
          "name": "amount",
          "type": "uint256"
        },
        {
          "indexed": false,
          "internalType": "uint256",
          "name": "date",
          "type": "uint256"
        }
      ],
      "name": "CLAIMED",
      "type": "event"
    },
    {
      "anonymous": false,
      "inputs": [
        {
          "indexed": true,
          "internalType": "address",
          "name": "previousOwner",
          "type": "address"
        },
        {
          "indexed": true,
          "internalType": "address",
          "name": "newOwner",
          "type": "address"
        }
      ],
      "name": "OwnershipTransferred",
      "type": "event"
    },
    {
      "anonymous": false,
      "inputs": [
        {
          "indexed": false,
          "internalType": "address",
          "name": "claimer",
          "type": "address"
        },
        {
          "indexed": false,
          "internalType": "uint256",
          "name": "amountBNB",
          "type": "uint256"
        },
        {
          "indexed": false,
          "internalType": "uint256",
          "name": "amountVAL",
          "type": "uint256"
        }
      ],
      "name": "RECEIVED",
      "type": "event"
    },
    {
      "inputs": [],
      "name": "burnAddress",
      "outputs": [
        {
          "internalType": "address",
          "name": "",
          "type": "address"
        }
      ],
      "stateMutability": "view",
      "type": "function"
    },
    {
      "inputs": [],
      "name": "dailyVesting",
      "outputs": [
        {
          "internalType": "int128",
          "name": "",
          "type": "int128"
        }
      ],
      "stateMutability": "view",
      "type": "function"
    },
    {
      "inputs": [],
      "name": "lastDayToBuy",
      "outputs": [
        {
          "internalType": "uint256",
          "name": "",
          "type": "uint256"
        }
      ],
      "stateMutability": "view",
      "type": "function"
    },
    {
      "inputs": [],
      "name": "max",
      "outputs": [
        {
          "internalType": "uint256",
          "name": "",
          "type": "uint256"
        }
      ],
      "stateMutability": "view",
      "type": "function"
    },
    {
      "inputs": [],
      "name": "min",
      "outputs": [
        {
          "internalType": "uint256",
          "name": "",
          "type": "uint256"
        }
      ],
      "stateMutability": "view",
      "type": "function"
    },
    {
      "inputs": [],
      "name": "owner",
      "outputs": [
        {
          "internalType": "address",
          "name": "",
          "type": "address"
        }
      ],
      "stateMutability": "view",
      "type": "function"
    },
    {
      "inputs": [],
      "name": "rate",
      "outputs": [
        {
          "internalType": "uint256",
          "name": "",
          "type": "uint256"
        }
      ],
      "stateMutability": "view",
      "type": "function"
    },
    {
      "inputs": [],
      "name": "renounceOwnership",
      "outputs": [],
      "stateMutability": "nonpayable",
      "type": "function"
    },
    {
      "inputs": [
        {
          "internalType": "address",
          "name": "newOwner",
          "type": "address"
        }
      ],
      "name": "transferOwnership",
      "outputs": [],
      "stateMutability": "nonpayable",
      "type": "function"
    },
    {
      "stateMutability": "payable",
      "type": "receive"
    },
    {
      "inputs": [],
      "name": "claim",
      "outputs": [],
      "stateMutability": "nonpayable",
      "type": "function"
    },
    {
      "inputs": [
        {
          "internalType": "uint256",
          "name": "amount",
          "type": "uint256"
        }
      ],
      "name": "withdraw",
      "outputs": [],
      "stateMutability": "nonpayable",
      "type": "function"
    },
    {
      "inputs": [],
      "name": "burnRemaining",
      "outputs": [],
      "stateMutability": "nonpayable",
      "type": "function"
    },
    {
      "inputs": [
        {
          "internalType": "address",
          "name": "claimer",
          "type": "address"
        }
      ],
      "name": "pendingToClaimOf",
      "outputs": [
        {
          "internalType": "uint256",
          "name": "",
          "type": "uint256"
        }
      ],
      "stateMutability": "view",
      "type": "function"
    },
    {
      "inputs": [
        {
          "internalType": "address",
          "name": "claimer",
          "type": "address"
        }
      ],
      "name": "releasedOf",
      "outputs": [
        {
          "internalType": "uint256",
          "name": "",
          "type": "uint256"
        }
      ],
      "stateMutability": "view",
      "type": "function"
    }
  ],
  "bytecode": "0x60a060405234801561001057600080fd5b5060405161125438038061125483398101604081905261002f916100d7565b610051610043640100000000610083810204565b640100000000610087810204565b6c01000000000000000000000000600160a060020a0382160260805261007a4262093a80610105565b60025550610142565b3390565b60008054600160a060020a03838116600160a060020a0319831681178455604051919092169283917f8be0079c531659141344cd1fd0a4f28419497f9722a3daafe3b4186f6b6457e09190a35050565b6000602082840312156100e8578081fd5b8151600160a060020a03811681146100fe578182fd5b9392505050565b6000821982111561013d577f4e487b710000000000000000000000000000000000000000000000000000000081526011600452602481fd5b500190565b6080516c0100000000000000000000000090046110e761016d600039600061059101526110e76000f3fe6080604052600436106100fe576000357c010000000000000000000000000000000000000000000000000000000090048063715018a61161009c578063d6a7800411610076578063d6a7800414610336578063ed0ad3211461034b578063f2fde38b1461036b578063f88979451461038b57610217565b8063715018a6146102ea5780638da5cb5b146102ff5780639b4588e11461031457610217565b80633f742422116100d85780633f7424221461027e5780634e71d92d1461029e5780636ac5db19146102b357806370d5ae05146102c857610217565b80632c4e722e1461021c5780632e1a7d4d1461024757806333e7fac91461026957610217565b36610217573031680ad78ebc5ac620000014156101395760405160e560020a62461bcd02815260040161013090610d4f565b60405180910390fd5b60025442111561015e5760405160e560020a62461bcd02815260040161013090610f0b565b67016345785d8a0000341015801561017f5750680ad78ebc5ac62000003411155b61019e5760405160e560020a62461bcd02815260040161013090610e77565b6101aa61271034611009565b33600090815260016020526040812080549091906101c9908490610fdd565b909155507fc9fc9e9a3d3294d412fb1477268711900b9baf040a22cb27577e4c8ecbe091bb905033346101fe61271082611009565b60405161020d93929190610d20565b60405180910390a1005b600080fd5b34801561022857600080fd5b506102316103a0565b60405161023e9190610fd4565b60405180910390f35b34801561025357600080fd5b50610267610262366004610cc3565b6103a6565b005b34801561027557600080fd5b5061023161046c565b34801561028a57600080fd5b50610231610299366004610c75565b610472565b3480156102aa57600080fd5b5061026761048d565b3480156102bf57600080fd5b50610231610694565b3480156102d457600080fd5b506102dd6106a1565b60405161023e9190610cf3565b3480156102f657600080fd5b506102676106a7565b34801561030b57600080fd5b506102dd6106f5565b34801561032057600080fd5b50610329610704565b60405161023e9190610d41565b34801561034257600080fd5b50610267610710565b34801561035757600080fd5b50610231610366366004610c75565b610a46565b34801561037757600080fd5b50610267610386366004610c75565b610a8f565b34801561039757600080fd5b50610231610b06565b61271081565b6103ae610b12565b600160a060020a03166103bf6106f5565b600160a060020a0316146103e85760405160e560020a62461bcd02815260040161013090610f68565b6002546103f89062015180610fdd565b42101561041a5760405160e560020a62461bcd02815260040161013090610f9d565b303181111561042857600080fd5b6104306106f5565b600160a060020a03166108fc829081150290604051600060405180830381858888f19350505050158015610468573d6000803e3d6000fd5b5050565b60025481565b600160a060020a031660009081526001602052604090205490565b336000908152600160205260409020546104bc5760405160e560020a62461bcd02815260040161013090610ed4565b601e6104c9600254610b16565b10156104ea5760405160e560020a62461bcd02815260040161013090610e1a565b6000601e6104f9600254610b16565b610503919061103f565b61050e600254610b16565b6105189190611028565b336000908152600160205260408120549192509082906105419067028f5c28f38c870090610b74565b61054b9190611009565b3360009081526001602052604081208054929350839290919061056f908490611028565b90915550506003805473ffffffffffffffffffffffffffffffffffffffff19167f0000000000000000000000000000000000000000000000000000000000000000600160a060020a0390811691909117918290556040517fa9059cbb00000000000000000000000000000000000000000000000000000000815291169063a9059cbb906106029033908590600401610d07565b602060405180830381600087803b15801561061c57600080fd5b505af1158015610630573d6000803e3d6000fd5b505050506040513d601f19601f820116820180604052508101906106549190610ca3565b507fd5471c13b8e0578973b573f8095702fcd4e11cb73aab8a8c75c2a637709d562533824260405161068893929190610d20565b60405180910390a15050565b680ad78ebc5ac620000081565b61dead81565b6106af610b12565b600160a060020a03166106c06106f5565b600160a060020a0316146106e95760405160e560020a62461bcd02815260040161013090610f68565b6106f36000610c18565b565b600054600160a060020a031690565b67028f5c28f38c870081565b610718610b12565b600160a060020a03166107296106f5565b600160a060020a0316146107525760405160e560020a62461bcd02815260040161013090610f68565b6002546107629062015180610fdd565b4210156107845760405160e560020a62461bcd02815260040161013090610f9d565b6003546040517f70a08231000000000000000000000000000000000000000000000000000000008152600160a060020a03909116906370a08231906107cd903090600401610cf3565b60206040518083038186803b1580156107e557600080fd5b505afa1580156107f9573d6000803e3d6000fd5b505050506040513d601f19601f8201168201806040525081019061081d9190610cdb565b61083c5760405160e560020a62461bcd02815260040161013090610f9d565b6003546040517f70a08231000000000000000000000000000000000000000000000000000000008152600160a060020a039091169063a9059cbb9061dead9083906370a0823190610891903090600401610cf3565b60206040518083038186803b1580156108a957600080fd5b505afa1580156108bd573d6000803e3d6000fd5b505050506040513d601f19601f820116820180604052508101906108e19190610cdb565b6040518363ffffffff167c010000000000000000000000000000000000000000000000000000000002815260040161091a929190610d07565b602060405180830381600087803b15801561093457600080fd5b505af1158015610948573d6000803e3d6000fd5b505050506040513d601f19601f8201168201806040525081019061096c9190610ca3565b506003546040517f70a082310000000000000000000000000000000000000000000000000000000081527fd5471c13b8e0578973b573f8095702fcd4e11cb73aab8a8c75c2a637709d56259161dead91600160a060020a03909116906370a08231906109dc903090600401610cf3565b60206040518083038186803b1580156109f457600080fd5b505afa158015610a08573d6000803e3d6000fd5b505050506040513d601f19601f82011682018060405250810190610a2c9190610cdb565b42604051610a3c93929190610d20565b60405180910390a1565b6000610a53600254610b16565b600160a060020a038316600090815260016020526040902054610a7f9067028f5c28f38c870090610b74565b610a899190611009565b92915050565b610a97610b12565b600160a060020a0316610aa86106f5565b600160a060020a031614610ad15760405160e560020a62461bcd02815260040161013090610f68565b600160a060020a038116610afa5760405160e560020a62461bcd02815260040161013090610d86565b610b0381610c18565b50565b67016345785d8a000081565b3390565b60008062015180610b278442611028565b610b319190610ff5565b610b3c90605a611028565b11610b5c5760405160e560020a62461bcd02815260040161013090610de3565b62015180610b6a8342611028565b610a899190610ff5565b600081610b8357506000610a89565b600083600f0b1215610b9457600080fd5b68010000000000000000600f84900b6fffffffffffffffffffffffffffffffff84168102919091049070010000000000000000000000000000000084040277ffffffffffffffffffffffffffffffffffffffffffffffff811115610bf757600080fd5b68010000000000000000028119811115610c1057600080fd5b019392505050565b60008054600160a060020a0383811673ffffffffffffffffffffffffffffffffffffffff19831681178455604051919092169283917f8be0079c531659141344cd1fd0a4f28419497f9722a3daafe3b4186f6b6457e09190a35050565b600060208284031215610c86578081fd5b8135600160a060020a0381168114610c9c578182fd5b9392505050565b600060208284031215610cb4578081fd5b81518015158114610c9c578182fd5b600060208284031215610cd4578081fd5b5035919050565b600060208284031215610cec578081fd5b5051919050565b600160a060020a0391909116815260200190565b600160a060020a03929092168252602082015260400190565b600160a060020a039390931683526020830191909152604082015260600190565b600f9190910b815260200190565b60208082526017908201527f534545445f53414c453a20576520646964206974203a29000000000000000000604082015260600190565b60208082526026908201527f4f776e61626c653a206e6577206f776e657220697320746865207a65726f206160408201527f6464726573730000000000000000000000000000000000000000000000000000606082015260800190565b6020808252600d908201527f54696d65206973206f7665722e00000000000000000000000000000000000000604082015260600190565b60208082526038908201527f534545445f53414c453a20596f75206861766520746f2077616974206174206c60408201527f65617374206f6e652076657374696e6720706572696f642e0000000000000000606082015260800190565b60208082526023908201527f534545445f53414c453a204572726f7220696e2076616c75652072656365697660408201527f696e670000000000000000000000000000000000000000000000000000000000606082015260800190565b6020808252601f908201527f534545445f53414c453a20596f7520646f6e277420686176652066756e647300604082015260600190565b60208082526022908201527f534545445f53414c453a204572726f72206f766572206461746520746f20627560408201527f792e000000000000000000000000000000000000000000000000000000000000606082015260800190565b6020808252818101527f4f776e61626c653a2063616c6c6572206973206e6f7420746865206f776e6572604082015260600190565b60208082526010908201527f534545445f53414c453a206572726f7200000000000000000000000000000000604082015260600190565b90815260200190565b60008219821115610ff057610ff0611053565b500190565b60008261100457611004611082565b500490565b600081600019048311821515161561102357611023611053565b500290565b60008282101561103a5761103a611053565b500390565b60008261104e5761104e611082565b500690565b7f4e487b7100000000000000000000000000000000000000000000000000000000600052601160045260246000fd5b7f4e487b7100000000000000000000000000000000000000000000000000000000600052601260045260246000fdfea2646970667358221220c29b24b2039380afae9078e2f6c9ec0be105c76e40e277e206d3a8193ebb691364736f6c63430008010033",
  "immutableReferences": {
    "3053": [
      {
        "length": 32,
        "start": 1425
      }
    ]
  },
  "source": "// SPDX-License-Identifier: MIT\npragma solidity >=0.8.0 <0.9.0;\n\n/**\n  @author Pedro Machado\n  @title SEED_SALE\n  @notice Contract designing to launch a private sale ERC20 token.\n */\n\nimport \"@openzeppelin/contracts/token/ERC20/IERC20.sol\";\nimport \"@openzeppelin/contracts/access/Ownable.sol\";\nimport \"./ABDKMath64x64.sol\";\n\ncontract Seed_Sale is Ownable {\n\n  mapping(address => uint) private _balance;\n\n  int128 public constant dailyVesting = 184467440700000000;\n  uint public constant min = 1*10**17 wei;\n  uint public constant max = 200*10**18 wei;\n  uint public constant rate = 10000;    \n  uint public lastDayToBuy;\n  address immutable val;\n  address public constant burnAddress = 0x000000000000000000000000000000000000dEaD;\n  IERC20 VAL;  \n\n  event CLAIMED(address claimer, uint amount, uint date);\n  event RECEIVED(address claimer, uint amountBNB, uint amountVAL);\n\n  constructor(address _val) {\n    val = _val;\n    lastDayToBuy = block.timestamp + 1 weeks;\n  }\n\n\n  receive() external payable {\n    require(address(this).balance != max, \"SEED_SALE: We did it :)\");\n    require(block.timestamp <= lastDayToBuy, \"SEED_SALE: Error over date to buy.\");\n    require(msg.value >= min && msg.value <= max, \"SEED_SALE: Error in value receiving\");\n    _balance[msg.sender] += msg.value * rate;\n    emit RECEIVED(msg.sender, msg.value, msg.value * rate);\n  }\n\n  function claim() external {\n    require(_balance[msg.sender] !=0, \"SEED_SALE: You don't have funds\");\n    require(daysPassed(lastDayToBuy) >= 30, \"SEED_SALE: You have to wait at least one vesting period.\");\n    uint validDaysToPay = daysPassed(lastDayToBuy) - (daysPassed(lastDayToBuy) % 30);\n    uint valueToPay = ABDKMath64x64.mulu(dailyVesting, _balance[msg.sender]) * validDaysToPay;\n    _balance[msg.sender] -= valueToPay;\n    VAL = IERC20(val);\n    VAL.transfer(msg.sender, valueToPay);\n    emit CLAIMED(msg.sender, valueToPay, block.timestamp);\n  }\n\n  function withdraw(uint amount) external onlyOwner {\n    require(block.timestamp >= lastDayToBuy + 1 days, \"SEED_SALE: error\");\n    require(amount <= address(this).balance);\n    payable(owner()).transfer(amount);\n  }\n\n  function burnRemaining() external onlyOwner {\n    require(block.timestamp >= lastDayToBuy + 1 days, \"SEED_SALE: error\");\n    require(VAL.balanceOf(address(this)) != 0, \"SEED_SALE: error\");\n    VAL.transfer(burnAddress, VAL.balanceOf(address(this)));\n    emit CLAIMED(burnAddress, VAL.balanceOf(address(this)), block.timestamp);\n  }\n\n  function pendingToClaimOf(address claimer) external view returns(uint) {\n    return _balance[claimer];\n  }\n\n  function releasedOf(address claimer) external view returns(uint) {\n    return ABDKMath64x64.mulu(dailyVesting, _balance[claimer]) * daysPassed(lastDayToBuy);\n  }\n\n  function daysPassed(uint startDate) private view returns(uint) {\n    require(90 - ((block.timestamp - startDate) / 1 days) > 0, \"Time is over.\");\n    return (block.timestamp - startDate) / 1 days;\n  }\n\n\n}\n",
  "sourcePath": "/home/peter/Documents/projects/Valeria/contracts/Seed_Sale.sol",
  "compiler": {
    "name": "solc",
    "version": "0.8.1+commit.df193b15.Emscripten.clang"
  },
  "schemaVersion": "3.4.3",
  "updatedAt": "2022-01-26T05:27:05.750Z",
  "devdoc": {
    "kind": "dev",
    "methods": {
      "owner()": {
        "details": "Returns the address of the current owner."
      },
      "renounceOwnership()": {
        "details": "Leaves the contract without owner. It will not be possible to call `onlyOwner` functions anymore. Can only be called by the current owner. NOTE: Renouncing ownership will leave the contract without an owner, thereby removing any functionality that is only available to the owner."
      },
      "transferOwnership(address)": {
        "details": "Transfers ownership of the contract to a new account (`newOwner`). Can only be called by the current owner."
      }
    },
    "version": 1
  },
  "userdoc": {
    "kind": "user",
    "methods": {},
    "version": 1
  }
}