{
  "contractName": "Seed_Sale",
  "abi": [
    {
      "inputs": [
        {
          "internalType": "address",
          "name": "_val",
          "type": "address"
        }
      ],
      "stateMutability": "nonpayable",
      "type": "constructor"
    },
    {
      "inputs": [],
      "name": "lastDayToBuy",
      "outputs": [
        {
          "internalType": "uint32",
          "name": "",
          "type": "uint32"
        }
      ],
      "stateMutability": "view",
      "type": "function"
    },
    {
      "inputs": [],
      "name": "max",
      "outputs": [
        {
          "internalType": "uint256",
          "name": "",
          "type": "uint256"
        }
      ],
      "stateMutability": "view",
      "type": "function"
    },
    {
      "inputs": [],
      "name": "min",
      "outputs": [
        {
          "internalType": "uint256",
          "name": "",
          "type": "uint256"
        }
      ],
      "stateMutability": "view",
      "type": "function"
    },
    {
      "inputs": [],
      "name": "vestingPorcentage",
      "outputs": [
        {
          "internalType": "uint256",
          "name": "",
          "type": "uint256"
        }
      ],
      "stateMutability": "view",
      "type": "function"
    }
  ],
  "bytecode": "0x60a060405234801561001057600080fd5b506040516101bd3803806101bd83398101604081905261002f9161004f565b600160a060020a03166c010000000000000000000000000260805261007d565b600060208284031215610060578081fd5b8151600160a060020a0381168114610076578182fd5b9392505050565b6080516c0100000000000000000000000090046101186100a5600039600050506101186000f3fe6080604052348015600f57600080fd5b50600436106062577c0100000000000000000000000000000000000000000000000000000000600035046333e7fac98114606757806350f7dc1b1460815780636ac5db19146092578063f8897945146098575b600080fd5b606d609e565b6040516078919060d1565b60405180910390f35b608760aa565b6040516078919060c8565b608760af565b608760bc565b60015463ffffffff1681565b601e81565b680ad78ebc5ac620000081565b67016345785d8a000081565b90815260200190565b63ffffffff9190911681526020019056fea2646970667358221220b4b93ede776548a1a5ea79397b6a62d8abcc3f3a58068f91c890fd20215bba6f64736f6c63430008010033",
  "immutableReferences": {},
  "source": "// SPDX-License-Identifier: MIT\npragma solidity >=0.8.0 <0.9.0;\n//Don't has owner\nimport \"@openzeppelin/contracts/token/ERC20/IERC20.sol\";\n\ncontract Seed_Sale {\n\n  mapping(address => uint) private _balance;\n\n  uint public constant vestingPorcentage = 30;\n  uint public constant min = 1*10**17 wei;\n  uint public constant max = 200*10**18 wei;    \n  uint32 public lastDayToBuy;\n  address immutable val;\n  IERC20 VAL;  \n\n  constructor(address _val) {\n    val = _val;\n  }\n\n  \n\n}\n",
  "sourcePath": "/home/peter/Documents/projects/Valeria/contracts/Seed_Sale.sol",
  "compiler": {
    "name": "solc",
    "version": "0.8.1+commit.df193b15.Emscripten.clang"
  },
  "schemaVersion": "3.4.3",
  "updatedAt": "2022-01-26T04:43:49.071Z",
  "devdoc": {
    "kind": "dev",
    "methods": {},
    "version": 1
  },
  "userdoc": {
    "kind": "user",
    "methods": {},
    "version": 1
  }
}