{
  "contractName": "Seed_Sale",
  "abi": [
    {
      "inputs": [
        {
          "internalType": "address",
          "name": "_token",
          "type": "address"
        },
        {
          "internalType": "uint64",
          "name": "startDate",
          "type": "uint64"
        },
        {
          "internalType": "uint64",
          "name": "endDate",
          "type": "uint64"
        },
        {
          "internalType": "uint8",
          "name": "vestingTime",
          "type": "uint8"
        }
      ],
      "stateMutability": "nonpayable",
      "type": "constructor"
    },
    {
      "anonymous": false,
      "inputs": [
        {
          "indexed": false,
          "internalType": "address",
          "name": "claimer",
          "type": "address"
        },
        {
          "indexed": false,
          "internalType": "uint256",
          "name": "amount",
          "type": "uint256"
        },
        {
          "indexed": false,
          "internalType": "uint256",
          "name": "date",
          "type": "uint256"
        }
      ],
      "name": "CLAIMED",
      "type": "event"
    },
    {
      "anonymous": false,
      "inputs": [
        {
          "indexed": true,
          "internalType": "address",
          "name": "previousOwner",
          "type": "address"
        },
        {
          "indexed": true,
          "internalType": "address",
          "name": "newOwner",
          "type": "address"
        }
      ],
      "name": "OwnershipTransferred",
      "type": "event"
    },
    {
      "anonymous": false,
      "inputs": [
        {
          "indexed": false,
          "internalType": "address",
          "name": "claimer",
          "type": "address"
        },
        {
          "indexed": false,
          "internalType": "uint256",
          "name": "amountBNB",
          "type": "uint256"
        },
        {
          "indexed": false,
          "internalType": "uint256",
          "name": "amountVAL",
          "type": "uint256"
        }
      ],
      "name": "RECEIVED",
      "type": "event"
    },
    {
      "inputs": [],
      "name": "burnAddress",
      "outputs": [
        {
          "internalType": "address",
          "name": "",
          "type": "address"
        }
      ],
      "stateMutability": "view",
      "type": "function"
    },
    {
      "inputs": [],
      "name": "goal",
      "outputs": [
        {
          "internalType": "uint256",
          "name": "",
          "type": "uint256"
        }
      ],
      "stateMutability": "view",
      "type": "function"
    },
    {
      "inputs": [],
      "name": "lastDayToBuy",
      "outputs": [
        {
          "internalType": "uint64",
          "name": "",
          "type": "uint64"
        }
      ],
      "stateMutability": "view",
      "type": "function"
    },
    {
      "inputs": [],
      "name": "max",
      "outputs": [
        {
          "internalType": "uint256",
          "name": "",
          "type": "uint256"
        }
      ],
      "stateMutability": "view",
      "type": "function"
    },
    {
      "inputs": [],
      "name": "min",
      "outputs": [
        {
          "internalType": "uint256",
          "name": "",
          "type": "uint256"
        }
      ],
      "stateMutability": "view",
      "type": "function"
    },
    {
      "inputs": [],
      "name": "owner",
      "outputs": [
        {
          "internalType": "address",
          "name": "",
          "type": "address"
        }
      ],
      "stateMutability": "view",
      "type": "function"
    },
    {
      "inputs": [],
      "name": "rate",
      "outputs": [
        {
          "internalType": "uint16",
          "name": "",
          "type": "uint16"
        }
      ],
      "stateMutability": "view",
      "type": "function"
    },
    {
      "inputs": [],
      "name": "renounceOwnership",
      "outputs": [],
      "stateMutability": "nonpayable",
      "type": "function"
    },
    {
      "inputs": [],
      "name": "startDateToBuy",
      "outputs": [
        {
          "internalType": "uint64",
          "name": "",
          "type": "uint64"
        }
      ],
      "stateMutability": "view",
      "type": "function"
    },
    {
      "inputs": [
        {
          "internalType": "address",
          "name": "newOwner",
          "type": "address"
        }
      ],
      "name": "transferOwnership",
      "outputs": [],
      "stateMutability": "nonpayable",
      "type": "function"
    },
    {
      "stateMutability": "payable",
      "type": "receive"
    },
    {
      "inputs": [],
      "name": "claim",
      "outputs": [],
      "stateMutability": "nonpayable",
      "type": "function"
    },
    {
      "inputs": [
        {
          "internalType": "address",
          "name": "claimer",
          "type": "address"
        }
      ],
      "name": "pendingToRelease",
      "outputs": [
        {
          "internalType": "uint256",
          "name": "",
          "type": "uint256"
        }
      ],
      "stateMutability": "view",
      "type": "function"
    },
    {
      "inputs": [],
      "name": "totalAllocation",
      "outputs": [
        {
          "internalType": "uint256",
          "name": "",
          "type": "uint256"
        }
      ],
      "stateMutability": "view",
      "type": "function"
    },
    {
      "inputs": [
        {
          "internalType": "address",
          "name": "claimer",
          "type": "address"
        }
      ],
      "name": "toRelease",
      "outputs": [
        {
          "internalType": "uint256",
          "name": "",
          "type": "uint256"
        }
      ],
      "stateMutability": "view",
      "type": "function"
    },
    {
      "inputs": [
        {
          "internalType": "address",
          "name": "claimer",
          "type": "address"
        }
      ],
      "name": "released",
      "outputs": [
        {
          "internalType": "uint256",
          "name": "",
          "type": "uint256"
        }
      ],
      "stateMutability": "view",
      "type": "function"
    },
    {
      "inputs": [
        {
          "internalType": "address",
          "name": "claimer",
          "type": "address"
        }
      ],
      "name": "vestingAmount",
      "outputs": [
        {
          "internalType": "uint256",
          "name": "",
          "type": "uint256"
        }
      ],
      "stateMutability": "view",
      "type": "function"
    },
    {
      "inputs": [],
      "name": "vestingPorcentage",
      "outputs": [
        {
          "internalType": "uint8",
          "name": "",
          "type": "uint8"
        }
      ],
      "stateMutability": "pure",
      "type": "function"
    }
  ],
  "bytecode": "0x60a060405234801561001057600080fd5b50604051610f79380380610f7983398101604081905261002f9161014d565b6100516100436401000000006100dd810204565b6401000000006100e1810204565b600160a060020a03939093166c01000000000000000000000000026080526003805467ffffffffffffffff19166001604060020a0393841617604060020a608060020a03191668010000000000000000929093169190910291909117608060020a60ff02191670010000000000000000000000000000000060ff909316929092029190911790556101b4565b3390565b60008054600160a060020a03838116600160a060020a0319831681178455604051919092169283917f8be0079c531659141344cd1fd0a4f28419497f9722a3daafe3b4186f6b6457e09190a35050565b80516001604060020a038116811461014857600080fd5b919050565b60008060008060808587031215610162578384fd5b8451600160a060020a0381168114610178578485fd5b935061018660208601610131565b925061019460408601610131565b9150606085015160ff811681146101a9578182fd5b939692955090935050565b6080516c010000000000000000000000009004610d936101e66000396000818161050301526107b00152610d936000f3fe60806040526004361061011f576000357c01000000000000000000000000000000000000000000000000000000009004806370d5ae05116100b2578063976372291161008157806397637229146104275780639852595c14610447578063a7aeab0b14610467578063f2fde38b1461047c578063f88979451461049c576102c4565b806370d5ae05146103c6578063715018a6146103e857806379203dc4146103fd5780638da5cb5b14610412576102c4565b806350f7dc1b116100ee57806350f7dc1b1461034f57806351932dea1461037157806362320fbf146103915780636ac5db19146103b1576102c4565b80632c4e722e146102c957806333e7fac9146102f457806340193883146103165780634e71d92d14610338576102c4565b366102c457600254303190610135903490610ca7565b111561015f5760405160e560020a62461bcd02815260040161015690610ab2565b60405180910390fd5b60035467ffffffffffffffff164210801590610193575060035468010000000000000000900467ffffffffffffffff164211155b6101b25760405160e560020a62461bcd02815260040161015690610ba3565b671bc16d674ec8000034101580156101d25750674563918244f400003411155b6101f15760405160e560020a62461bcd02815260040161015690610b46565b6101fd6103e834610cf8565b336000908152600160205260408120805490919061021c908490610ca7565b9091555050600354336000908152600160205260408120600290810180546801000000000000000090940467ffffffffffffffff1667ffffffffffffffff1990941693909317909255815434929190610276908490610ca7565b909155507fc9fc9e9a3d3294d412fb1477268711900b9baf040a22cb27577e4c8ecbe091bb905033346102ab6103e882610cf8565b6040516102ba93929190610a91565b60405180910390a1005b600080fd5b3480156102d557600080fd5b506102de6104b1565b6040516102eb9190610c6c565b60405180910390f35b34801561030057600080fd5b506103096104b7565b6040516102eb9190610c84565b34801561032257600080fd5b5061032b6104d3565b6040516102eb9190610c7b565b34801561034457600080fd5b5061034d6104d9565b005b34801561035b57600080fd5b5061036461066b565b6040516102eb9190610c99565b34801561037d57600080fd5b5061032b61038c366004610a05565b610670565b34801561039d57600080fd5b5061032b6103ac366004610a05565b6106a6565b3480156103bd57600080fd5b5061032b610725565b3480156103d257600080fd5b506103db610731565b6040516102eb9190610a64565b3480156103f457600080fd5b5061034d610737565b34801561040957600080fd5b5061032b610785565b34801561041e57600080fd5b506103db610845565b34801561043357600080fd5b5061032b610442366004610a05565b610854565b34801561045357600080fd5b5061032b610462366004610a05565b61088f565b34801561047357600080fd5b506103096108ae565b34801561048857600080fd5b5061034d610497366004610a05565b6108be565b3480156104a857600080fd5b5061032b610935565b6103e881565b60035468010000000000000000900467ffffffffffffffff1681565b60025481565b6104e2336106a6565b6105015760405160e560020a62461bcd02815260040161015690610c35565b7f0000000000000000000000000000000000000000000000000000000000000000600160a060020a03811663a9059cbb3361053b816106a6565b6040518363ffffffff167c0100000000000000000000000000000000000000000000000000000000028152600401610574929190610a78565b602060405180830381600087803b15801561058e57600080fd5b505af11580156105a2573d6000803e3d6000fd5b505050506040513d601f19601f820116820180604052508101906105c69190610a2c565b50336000818152600160205260409020600201805467ffffffffffffffff19164267ffffffffffffffff161790556105fd906106a6565b336000908152600160208190526040822001805490919061061f908490610ca7565b909155507fd5471c13b8e0578973b573f8095702fcd4e11cb73aab8a8c75c2a637709d5625905033610650816106a6565b4260405161066093929190610a91565b60405180910390a150565b601990565b600061067b8261088f565b600160a060020a03831660009081526001602052604090205461069e9190610d17565b90505b919050565b60006106b18261088f565b600160a060020a0383166000908152600160205260409020546106d49190610d17565b1561071d57600354600090700100000000000000000000000000000000900460ff166106ff84610941565b6107099190610cbf565b90506107158382610974565b9150506106a1565b5060006106a1565b674563918244f4000081565b61dead81565b61073f6109a4565b600160a060020a0316610750610845565b600160a060020a0316146107795760405160e560020a62461bcd02815260040161015690610c00565b61078360006109a8565b565b6040517f70a082310000000000000000000000000000000000000000000000000000000081526000907f000000000000000000000000000000000000000000000000000000000000000090600160a060020a038216906370a08231906107ef903090600401610a64565b60206040518083038186803b15801561080757600080fd5b505afa15801561081b573d6000803e3d6000fd5b505050506040513d601f19601f8201168201806040525081019061083f9190610a4c565b91505090565b600054600160a060020a031690565b600160a060020a03811660009081526001602052604081205460649061087861066b565b60ff166108859190610cf8565b61069e9190610cbf565b600160a060020a03166000908152600160208190526040909120015490565b60035467ffffffffffffffff1681565b6108c66109a4565b600160a060020a03166108d7610845565b600160a060020a0316146109005760405160e560020a62461bcd02815260040161015690610c00565b600160a060020a0381166109295760405160e560020a62461bcd02815260040161015690610ae9565b610932816109a8565b50565b671bc16d674ec8000081565b600160a060020a038116600090815260016020526040812060020154603c906108859067ffffffffffffffff1642610d17565b600061097f8361088f565b8261098985610854565b6109939190610cf8565b61099d9190610d17565b9392505050565b3390565b60008054600160a060020a0383811673ffffffffffffffffffffffffffffffffffffffff19831681178455604051919092169283917f8be0079c531659141344cd1fd0a4f28419497f9722a3daafe3b4186f6b6457e09190a35050565b600060208284031215610a16578081fd5b8135600160a060020a038116811461099d578182fd5b600060208284031215610a3d578081fd5b8151801515811461099d578182fd5b600060208284031215610a5d578081fd5b5051919050565b600160a060020a0391909116815260200190565b600160a060020a03929092168252602082015260400190565b600160a060020a039390931683526020830191909152604082015260600190565b60208082526017908201527f534545445f53414c453a20576520646964206974203a29000000000000000000604082015260600190565b60208082526026908201527f4f776e61626c653a206e6577206f776e657220697320746865207a65726f206160408201527f6464726573730000000000000000000000000000000000000000000000000000606082015260800190565b60208082526023908201527f534545445f53414c453a204572726f7220696e2076616c75652072656365697660408201527f696e670000000000000000000000000000000000000000000000000000000000606082015260800190565b60208082526022908201527f534545445f53414c453a204572726f72206f766572206461746520746f20627560408201527f792e000000000000000000000000000000000000000000000000000000000000606082015260800190565b6020808252818101527f4f776e61626c653a2063616c6c6572206973206e6f7420746865206f776e6572604082015260600190565b6020808252601c908201527f5468657265206973206e6f7468696e6720746f2072656c656173652e00000000604082015260600190565b61ffff91909116815260200190565b90815260200190565b67ffffffffffffffff91909116815260200190565b60ff91909116815260200190565b60008219821115610cba57610cba610d2e565b500190565b600082610cf3577f4e487b710000000000000000000000000000000000000000000000000000000081526012600452602481fd5b500490565b6000816000190483118215151615610d1257610d12610d2e565b500290565b600082821015610d2957610d29610d2e565b500390565b7f4e487b7100000000000000000000000000000000000000000000000000000000600052601160045260246000fdfea26469706673582212203d93ebdfc5a715d88f8cbdc5ab8f48a9a3308eb17965bbe1894a7a6489f8122264736f6c63430008010033",
  "immutableReferences": {
    "4732": [
      {
        "length": 32,
        "start": 1283
      },
      {
        "length": 32,
        "start": 1968
      }
    ]
  },
  "source": "// SPDX-License-Identifier: MIT\npragma solidity >=0.8.0 <0.9.0;\n\n/**\n  @author Pedro Machado\n  @title SEED_SALE\n  @notice Contract designing to launch an ERC20 private-sale-token with vesting time. \n */\n\nimport \"@openzeppelin/contracts/token/ERC20/IERC20.sol\";\nimport \"@openzeppelin/contracts/access/Ownable.sol\";\n\ncontract Seed_Sale is Ownable {\n\n  struct Investor {\n    uint _allocation;\n    uint _released;\n    uint64 _lastDateClaimed;\n  }\n\n  mapping (address => Investor) private _investor;\n\n\n  uint public constant min = 2*10**18 wei; \n  uint public constant max = 5*10**18 wei;\n  uint public goal;\n  uint64 public startDateToBuy; //UNIX format\n  uint64 public lastDayToBuy; //UNIX format\n  uint16 public constant rate = 1000; \n  uint8 vestingEpoch; //sampling period\n  address immutable erc20;\n  address public constant burnAddress = 0x000000000000000000000000000000000000dEaD;\n  \n  event CLAIMED(address claimer, uint amount, uint date);\n  event RECEIVED(address claimer, uint amountBNB, uint amountVAL);\n\n  constructor(address _token, uint64 startDate, uint64 endDate, uint8 vestingTime) {\n    //address erc20\n    erc20 = _token;\n    //Private duration\n    startDateToBuy = startDate;\n    lastDayToBuy = endDate;\n    //Vesting time\n    vestingEpoch = vestingTime;\n  }\n\n\n  receive() external payable {\n    require(goal + msg.value <= address(this).balance , \"SEED_SALE: We did it :)\");\n    require(block.timestamp >= startDateToBuy && block.timestamp <= lastDayToBuy, \"SEED_SALE: Error over date to buy.\");\n    require(msg.value >= min && msg.value <= max, \"SEED_SALE: Error in value receiving\");\n    _investor[msg.sender]._allocation += msg.value * rate;\n    _investor[msg.sender]._lastDateClaimed = lastDayToBuy; //lastDateClaimed is inicialized at lastDayToBuy;\n    goal += msg.value;\n    emit RECEIVED(msg.sender, msg.value, msg.value * rate);\n  }\n\n  function claim() external { \n    require(pendingToRelease(msg.sender) != 0, 'There is nothing to release.');\n    IERC20 TOKEN;\n    TOKEN = IERC20(erc20);\n    TOKEN.transfer(msg.sender, pendingToRelease(msg.sender));\n    _investor[msg.sender]._lastDateClaimed = uint64(block.timestamp);\n    _investor[msg.sender]._released += pendingToRelease(msg.sender);\n    emit CLAIMED(msg.sender, pendingToRelease(msg.sender), block.timestamp);\n\n  }\n\n  function pendingToRelease(address claimer) public view returns(uint) {\n    if (_investor[claimer]._allocation - released(claimer) != 0) {\n      uint epoch = duration(claimer) / vestingEpoch;\n      return calculeToRelease(claimer, epoch);\n    }\n    else {\n      return 0;\n    }\n  }\n\n  function totalAllocation() public view returns(uint) {\n    IERC20 TOKEN;\n    TOKEN = IERC20(erc20);\n    return TOKEN.balanceOf(address(this));\n  }\n\n  function toRelease(address claimer) public view returns(uint) {\n    return _investor[claimer]._allocation - released(claimer);\n  }\n\n  function released(address claimer) public view returns(uint) {\n    return _investor[claimer]._released;\n  }\n\n  function vestingAmount(address claimer) public view returns(uint) {\n    return (vestingPorcentage() * _investor[claimer]._allocation) / 100;  \n  }\n\n  function vestingPorcentage() public pure returns(uint8) {\n    return 25;\n  }\n\n  function calculeToRelease(address claimer, uint epoch) private view returns(uint) {\n    return vestingAmount(claimer) * epoch - released(claimer);\n  }\n\n  function duration(address claimer) private view returns (uint) {\n    return (block.timestamp - _investor[claimer]._lastDateClaimed) / 1 minutes;\n  }\n\n}\n",
  "sourcePath": "/home/peter/Documents/projects/Valeria/contracts/Seed_Sale.sol",
  "compiler": {
    "name": "solc",
    "version": "0.8.1+commit.df193b15.Emscripten.clang"
  },
  "schemaVersion": "3.4.3",
  "updatedAt": "2022-03-04T02:33:14.118Z",
  "networkType": "ethereum",
  "devdoc": {
    "kind": "dev",
    "methods": {
      "owner()": {
        "details": "Returns the address of the current owner."
      },
      "renounceOwnership()": {
        "details": "Leaves the contract without owner. It will not be possible to call `onlyOwner` functions anymore. Can only be called by the current owner. NOTE: Renouncing ownership will leave the contract without an owner, thereby removing any functionality that is only available to the owner."
      },
      "transferOwnership(address)": {
        "details": "Transfers ownership of the contract to a new account (`newOwner`). Can only be called by the current owner."
      }
    },
    "version": 1
  },
  "userdoc": {
    "kind": "user",
    "methods": {},
    "version": 1
  }
}