{
  "contractName": "SpliterTeam",
  "abi": [
    {
      "inputs": [
        {
          "internalType": "address",
          "name": "_valeria",
          "type": "address"
        },
        {
          "internalType": "uint256",
          "name": "_balanceOfMarketing",
          "type": "uint256"
        },
        {
          "internalType": "uint256",
          "name": "_balanceOfTeams",
          "type": "uint256"
        },
        {
          "internalType": "uint256",
          "name": "_balanceOfConsultants",
          "type": "uint256"
        }
      ],
      "stateMutability": "nonpayable",
      "type": "constructor"
    },
    {
      "anonymous": false,
      "inputs": [
        {
          "indexed": true,
          "internalType": "address",
          "name": "previousOwner",
          "type": "address"
        },
        {
          "indexed": true,
          "internalType": "address",
          "name": "newOwner",
          "type": "address"
        }
      ],
      "name": "OwnershipTransferred",
      "type": "event"
    },
    {
      "inputs": [],
      "name": "owner",
      "outputs": [
        {
          "internalType": "address",
          "name": "",
          "type": "address"
        }
      ],
      "stateMutability": "view",
      "type": "function"
    },
    {
      "inputs": [],
      "name": "renounceOwnership",
      "outputs": [],
      "stateMutability": "nonpayable",
      "type": "function"
    },
    {
      "inputs": [
        {
          "internalType": "address",
          "name": "newOwner",
          "type": "address"
        }
      ],
      "name": "transferOwnership",
      "outputs": [],
      "stateMutability": "nonpayable",
      "type": "function"
    },
    {
      "inputs": [
        {
          "internalType": "uint256",
          "name": "category",
          "type": "uint256"
        },
        {
          "components": [
            {
              "internalType": "address",
              "name": "beneficiary",
              "type": "address"
            },
            {
              "internalType": "uint256",
              "name": "amount",
              "type": "uint256"
            },
            {
              "internalType": "uint256",
              "name": "category",
              "type": "uint256"
            },
            {
              "internalType": "uint256",
              "name": "vestingTime",
              "type": "uint256"
            },
            {
              "internalType": "uint256",
              "name": "dailyIssue",
              "type": "uint256"
            },
            {
              "internalType": "uint256",
              "name": "startDate",
              "type": "uint256"
            },
            {
              "internalType": "uint256",
              "name": "lastClaim",
              "type": "uint256"
            }
          ],
          "internalType": "struct SpliterTeam.TEMPLATE[]",
          "name": "_subwhitelist",
          "type": "tuple[]"
        }
      ],
      "name": "insertListOf",
      "outputs": [
        {
          "internalType": "bool",
          "name": "",
          "type": "bool"
        }
      ],
      "stateMutability": "nonpayable",
      "type": "function"
    },
    {
      "inputs": [
        {
          "internalType": "address",
          "name": "_beneficiary",
          "type": "address"
        },
        {
          "internalType": "uint256",
          "name": "_amount",
          "type": "uint256"
        }
      ],
      "name": "addProfitToBeneficiary",
      "outputs": [
        {
          "internalType": "bool",
          "name": "",
          "type": "bool"
        }
      ],
      "stateMutability": "nonpayable",
      "type": "function"
    },
    {
      "inputs": [
        {
          "internalType": "address",
          "name": "_beneficiary",
          "type": "address"
        },
        {
          "internalType": "uint256",
          "name": "_amount",
          "type": "uint256"
        }
      ],
      "name": "subProfitToBeneficiary",
      "outputs": [
        {
          "internalType": "bool",
          "name": "",
          "type": "bool"
        }
      ],
      "stateMutability": "nonpayable",
      "type": "function"
    },
    {
      "inputs": [],
      "name": "getTotalBalanceForDistribuition",
      "outputs": [
        {
          "internalType": "uint256",
          "name": "",
          "type": "uint256"
        }
      ],
      "stateMutability": "view",
      "type": "function"
    },
    {
      "inputs": [],
      "name": "accumulatedRelease",
      "outputs": [
        {
          "internalType": "uint256",
          "name": "",
          "type": "uint256"
        }
      ],
      "stateMutability": "view",
      "type": "function"
    },
    {
      "inputs": [],
      "name": "toRelease",
      "outputs": [
        {
          "internalType": "uint256",
          "name": "",
          "type": "uint256"
        }
      ],
      "stateMutability": "view",
      "type": "function"
    },
    {
      "inputs": [],
      "name": "totalClaimed",
      "outputs": [
        {
          "internalType": "uint256",
          "name": "",
          "type": "uint256"
        }
      ],
      "stateMutability": "view",
      "type": "function"
    },
    {
      "inputs": [],
      "name": "claim",
      "outputs": [
        {
          "internalType": "bool",
          "name": "",
          "type": "bool"
        }
      ],
      "stateMutability": "nonpayable",
      "type": "function"
    }
  ],
  "bytecode": "0x60806040523480156200001157600080fd5b50604051620023d6380380620023d68339818101604052810190620000379190620002d6565b6200006962000054620001dc640100000000026401000000009004565b620001e4640100000000026401000000009004565b83600860006101000a81548173ffffffffffffffffffffffffffffffffffffffff021916908373ffffffffffffffffffffffffffffffffffffffff160217905550826001600060038110620000e7577f4e487b7100000000000000000000000000000000000000000000000000000000600052603260045260246000fd5b0181905550816001806003811062000128577f4e487b7100000000000000000000000000000000000000000000000000000000600052603260045260246000fd5b01819055508060016002600381106200016a577f4e487b7100000000000000000000000000000000000000000000000000000000600052603260045260246000fd5b0181905550600860009054906101000a900473ffffffffffffffffffffffffffffffffffffffff16600960006101000a81548173ffffffffffffffffffffffffffffffffffffffff021916908373ffffffffffffffffffffffffffffffffffffffff16021790555050505050620003b4565b600033905090565b60008060009054906101000a900473ffffffffffffffffffffffffffffffffffffffff169050816000806101000a81548173ffffffffffffffffffffffffffffffffffffffff021916908373ffffffffffffffffffffffffffffffffffffffff1602179055508173ffffffffffffffffffffffffffffffffffffffff168173ffffffffffffffffffffffffffffffffffffffff167f8be0079c531659141344cd1fd0a4f28419497f9722a3daafe3b4186f6b6457e060405160405180910390a35050565b600081519050620002b98162000380565b92915050565b600081519050620002d0816200039a565b92915050565b60008060008060808587031215620002ed57600080fd5b6000620002fd87828801620002a8565b94505060206200031087828801620002bf565b93505060406200032387828801620002bf565b92505060606200033687828801620002bf565b91505092959194509250565b60006200034f8262000356565b9050919050565b600073ffffffffffffffffffffffffffffffffffffffff82169050919050565b6000819050919050565b6200038b8162000342565b81146200039757600080fd5b50565b620003a58162000376565b8114620003b157600080fd5b50565b61201280620003c46000396000f3fe608060405234801561001057600080fd5b50600436106100c6576000357c0100000000000000000000000000000000000000000000000000000000900480638da5cb5b1161008e5780638da5cb5b1461015f578063aa8f245f1461017d578063d459e452146101ad578063d54ad2a1146101cb578063d793fa5d146101e9578063f2fde38b14610219576100c6565b80631aa93ef8146100cb5780632db00e51146100fb5780634e71d92d146101195780634eddca9014610137578063715018a614610155575b600080fd5b6100e560048036038101906100e091906117bd565b610235565b6040516100f29190611a05565b60405180910390f35b6101036104e7565b6040516101109190611b00565b60405180910390f35b610121610586565b60405161012e9190611a05565b60405180910390f35b61013f610958565b60405161014c9190611b00565b60405180910390f35b61015d610a26565b005b610167610aae565b60405161017491906119c1565b60405180910390f35b6101976004803603810190610192919061184b565b610ad7565b6040516101a49190611a05565b60405180910390f35b6101b5610eef565b6040516101c29190611b00565b60405180910390f35b6101d3610f39565b6040516101e09190611b00565b60405180910390f35b61020360048036038101906101fe91906117bd565b61103e565b6040516102109190611a05565b60405180910390f35b610233600480360381019061022e9190611794565b6111a9565b005b600061023f6112a1565b73ffffffffffffffffffffffffffffffffffffffff1661025d610aae565b73ffffffffffffffffffffffffffffffffffffffff16146102b3576040517f08c379a00000000000000000000000000000000000000000000000000000000081526004016102aa90611aa0565b60405180910390fd5b81600760008573ffffffffffffffffffffffffffffffffffffffff1673ffffffffffffffffffffffffffffffffffffffff16815260200190815260200160002060010160008282546103059190611b7d565b92505081905550816004600760008673ffffffffffffffffffffffffffffffffffffffff1673ffffffffffffffffffffffffffffffffffffffff1681526020019081526020016000206002015460038110610389577f4e487b7100000000000000000000000000000000000000000000000000000000600052603260045260246000fd5b0160008282546103999190611b7d565b925050819055506001600760008573ffffffffffffffffffffffffffffffffffffffff1673ffffffffffffffffffffffffffffffffffffffff168152602001908152602001600020600201546003811061041c577f4e487b7100000000000000000000000000000000000000000000000000000000600052603260045260246000fd5b01546004600760008673ffffffffffffffffffffffffffffffffffffffff1673ffffffffffffffffffffffffffffffffffffffff168152602001908152602001600020600201546003811061049a577f4e487b7100000000000000000000000000000000000000000000000000000000600052603260045260246000fd5b015411156104dd576040517f08c379a00000000000000000000000000000000000000000000000000000000081526004016104d490611ac0565b60405180910390fd5b6001905092915050565b6000610534600760003373ffffffffffffffffffffffffffffffffffffffff1673ffffffffffffffffffffffffffffffffffffffff168152602001908152602001600020600501546112a9565b600760003373ffffffffffffffffffffffffffffffffffffffff1673ffffffffffffffffffffffffffffffffffffffff168152602001908152602001600020600401546105819190611bd3565b905090565b6000601e6105d5600760003373ffffffffffffffffffffffffffffffffffffffff1673ffffffffffffffffffffffffffffffffffffffff168152602001908152602001600020600501546112a9565b11610615576040517f08c379a000000000000000000000000000000000000000000000000000000000815260040161060c90611ae0565b60405180910390fd5b6000601e610664600760003373ffffffffffffffffffffffffffffffffffffffff1673ffffffffffffffffffffffffffffffffffffffff168152602001908152602001600020600601546112a9565b61066e9190611d11565b6106b9600760003373ffffffffffffffffffffffffffffffffffffffff1673ffffffffffffffffffffffffffffffffffffffff168152602001908152602001600020600601546112a9565b6106c39190611c2d565b905080600760003373ffffffffffffffffffffffffffffffffffffffff1673ffffffffffffffffffffffffffffffffffffffff168152602001908152602001600020600401546107139190611bd3565b600760003373ffffffffffffffffffffffffffffffffffffffff1673ffffffffffffffffffffffffffffffffffffffff16815260200190815260200160002060010160008282546107649190611c2d565b925050819055506000600760003373ffffffffffffffffffffffffffffffffffffffff1673ffffffffffffffffffffffffffffffffffffffff16815260200190815260200160002060010154116107f0576040517f08c379a00000000000000000000000000000000000000000000000000000000081526004016107e790611a80565b60405180910390fd5b600960009054906101000a900473ffffffffffffffffffffffffffffffffffffffff1673ffffffffffffffffffffffffffffffffffffffff1663a9059cbb3383600760003373ffffffffffffffffffffffffffffffffffffffff1673ffffffffffffffffffffffffffffffffffffffff1681526020019081526020016000206004015461087d9190611bd3565b6040518363ffffffff167c01000000000000000000000000000000000000000000000000000000000281526004016108b69291906119dc565b602060405180830381600087803b1580156108d057600080fd5b505af11580156108e4573d6000803e3d6000fd5b505050506040513d601f19601f8201168201806040525081019061090891906117f9565b5042600760003373ffffffffffffffffffffffffffffffffffffffff1673ffffffffffffffffffffffffffffffffffffffff16815260200190815260200160002060060181905550600191505090565b6000600960009054906101000a900473ffffffffffffffffffffffffffffffffffffffff1673ffffffffffffffffffffffffffffffffffffffff166370a08231306040518263ffffffff167c01000000000000000000000000000000000000000000000000000000000281526004016109d191906119c1565b60206040518083038186803b1580156109e957600080fd5b505afa1580156109fd573d6000803e3d6000fd5b505050506040513d601f19601f82011682018060405250810190610a219190611822565b905090565b610a2e6112a1565b73ffffffffffffffffffffffffffffffffffffffff16610a4c610aae565b73ffffffffffffffffffffffffffffffffffffffff1614610aa2576040517f08c379a0000000000000000000000000000000000000000000000000000000008152600401610a9990611aa0565b60405180910390fd5b610aac6000611342565b565b60008060009054906101000a900473ffffffffffffffffffffffffffffffffffffffff16905090565b6000610ae16112a1565b73ffffffffffffffffffffffffffffffffffffffff16610aff610aae565b73ffffffffffffffffffffffffffffffffffffffff1614610b55576040517f08c379a0000000000000000000000000000000000000000000000000000000008152600401610b4c90611aa0565b60405180910390fd5b60005b82518160ff161015610ee4576040518060e00160405280848360ff1681518110610bab577f4e487b7100000000000000000000000000000000000000000000000000000000600052603260045260246000fd5b60200260200101516000015173ffffffffffffffffffffffffffffffffffffffff168152602001848360ff1681518110610c0e577f4e487b7100000000000000000000000000000000000000000000000000000000600052603260045260246000fd5b60200260200101516020015181526020018581526020016302c7ea0042610c359190611b7d565b8152602001610c9d610c50610c4b61021c611406565b61142c565b868560ff1681518110610c8c577f4e487b7100000000000000000000000000000000000000000000000000000000600052603260045260246000fd5b6020026020010151602001516114e5565b81526020014281526020014281525060076000858460ff1681518110610cec577f4e487b7100000000000000000000000000000000000000000000000000000000600052603260045260246000fd5b60200260200101516000015173ffffffffffffffffffffffffffffffffffffffff1673ffffffffffffffffffffffffffffffffffffffff16815260200190815260200160002060008201518160000160006101000a81548173ffffffffffffffffffffffffffffffffffffffff021916908373ffffffffffffffffffffffffffffffffffffffff1602179055506020820151816001015560408201518160020155606082015181600301556080820151816004015560a0820151816005015560c08201518160060155905050828160ff1681518110610df4577f4e487b7100000000000000000000000000000000000000000000000000000000600052603260045260246000fd5b60200260200101516020015160048560038110610e3a577f4e487b7100000000000000000000000000000000000000000000000000000000600052603260045260246000fd5b016000828254610e4a9190611b7d565b92505081905550610ed160048560038110610e8e577f4e487b7100000000000000000000000000000000000000000000000000000000600052603260045260246000fd5b015460018660038110610eca577f4e487b7100000000000000000000000000000000000000000000000000000000600052603260045260246000fd5b01546115b3565b8080610edc90611ce7565b915050610b58565b506001905092915050565b6000600760003373ffffffffffffffffffffffffffffffffffffffff1673ffffffffffffffffffffffffffffffffffffffff16815260200190815260200160002060010154905090565b600080601e610f89600760003373ffffffffffffffffffffffffffffffffffffffff1673ffffffffffffffffffffffffffffffffffffffff168152602001908152602001600020600501546112a9565b610f939190611d11565b610fde600760003373ffffffffffffffffffffffffffffffffffffffff1673ffffffffffffffffffffffffffffffffffffffff168152602001908152602001600020600501546112a9565b610fe89190611c2d565b905080600760003373ffffffffffffffffffffffffffffffffffffffff1673ffffffffffffffffffffffffffffffffffffffff168152602001908152602001600020600401546110389190611bd3565b91505090565b60006110486112a1565b73ffffffffffffffffffffffffffffffffffffffff16611066610aae565b73ffffffffffffffffffffffffffffffffffffffff16146110bc576040517f08c379a00000000000000000000000000000000000000000000000000000000081526004016110b390611aa0565b60405180910390fd5b600760008473ffffffffffffffffffffffffffffffffffffffff1673ffffffffffffffffffffffffffffffffffffffff1681526020019081526020016000206001015482111561110b57600080fd5b816004600760008673ffffffffffffffffffffffffffffffffffffffff1673ffffffffffffffffffffffffffffffffffffffff1681526020019081526020016000206002015460038110611188577f4e487b7100000000000000000000000000000000000000000000000000000000600052603260045260246000fd5b0160008282546111989190611c2d565b925050819055506001905092915050565b6111b16112a1565b73ffffffffffffffffffffffffffffffffffffffff166111cf610aae565b73ffffffffffffffffffffffffffffffffffffffff1614611225576040517f08c379a000000000000000000000000000000000000000000000000000000000815260040161121c90611aa0565b60405180910390fd5b600073ffffffffffffffffffffffffffffffffffffffff168173ffffffffffffffffffffffffffffffffffffffff161415611295576040517f08c379a000000000000000000000000000000000000000000000000000000000815260040161128c90611a40565b60405180910390fd5b61129e81611342565b50565b600033905090565b6000428211156112b857600080fd5b60006201518083426112ca9190611c2d565b6112d49190611bd3565b61021c6112e19190611c2d565b11611321576040517f08c379a000000000000000000000000000000000000000000000000000000000815260040161131890611a60565b60405180910390fd5b6201518082426113319190611c2d565b61133b9190611bd3565b9050919050565b60008060009054906101000a900473ffffffffffffffffffffffffffffffffffffffff169050816000806101000a81548173ffffffffffffffffffffffffffffffffffffffff021916908373ffffffffffffffffffffffffffffffffffffffff1602179055508173ffffffffffffffffffffffffffffffffffffffff168173ffffffffffffffffffffffffffffffffffffffff167f8be0079c531659141344cd1fd0a4f28419497f9722a3daafe3b4186f6b6457e060405160405180910390a35050565b6000677fffffffffffffff82111561141d57600080fd5b6040829060020a029050919050565b60008082600f0b141561143e57600080fd5b600082600f0b7001000000000000000000000000000000008161148a577f4e487b7100000000000000000000000000000000000000000000000000000000600052601260045260246000fd5b0590507fffffffffffffffffffffffffffffffff80000000000000000000000000000000600f0b81121580156114d357506f7fffffffffffffffffffffffffffffff600f0b8113155b6114dc57600080fd5b80915050919050565b6000808214156114f857600090506115ad565b600083600f0b121561150957600080fd5b600060406fffffffffffffffffffffffffffffffff841685600f0b02908060020a820491505090506000608084908060020a820491505085600f0b02905077ffffffffffffffffffffffffffffffffffffffffffffffff81111561156c57600080fd5b6040819060020a029050817fffffffffffffffffffffffffffffffffffffffffffffffffffffffffffffffff038111156115a557600080fd5b818101925050505b92915050565b808211156115f6576040517f08c379a00000000000000000000000000000000000000000000000000000000081526004016115ed90611a20565b60405180910390fd5b5050565b600061160d61160884611b40565b611b1b565b905080838252602082019050828560e086028201111561162c57600080fd5b60005b8581101561165c578161164288826116ba565b845260208401935060e0830192505060018101905061162f565b5050509392505050565b60008135905061167581611f97565b92915050565b600082601f83011261168c57600080fd5b813561169c8482602086016115fa565b91505092915050565b6000815190506116b481611fae565b92915050565b600060e082840312156116cc57600080fd5b6116d660e0611b1b565b905060006116e684828501611666565b60008301525060206116fa8482850161176a565b602083015250604061170e8482850161176a565b60408301525060606117228482850161176a565b60608301525060806117368482850161176a565b60808301525060a061174a8482850161176a565b60a08301525060c061175e8482850161176a565b60c08301525092915050565b60008135905061177981611fc5565b92915050565b60008151905061178e81611fc5565b92915050565b6000602082840312156117a657600080fd5b60006117b484828501611666565b91505092915050565b600080604083850312156117d057600080fd5b60006117de85828601611666565b92505060206117ef8582860161176a565b9150509250929050565b60006020828403121561180b57600080fd5b6000611819848285016116a5565b91505092915050565b60006020828403121561183457600080fd5b60006118428482850161177f565b91505092915050565b6000806040838503121561185e57600080fd5b600061186c8582860161176a565b925050602083013567ffffffffffffffff81111561188957600080fd5b6118958582860161167b565b9150509250929050565b6118a881611c61565b82525050565b6118b781611c73565b82525050565b60006118ca603083611b6c565b91506118d582611de0565b604082019050919050565b60006118ed602683611b6c565b91506118f882611e2f565b604082019050919050565b6000611910600d83611b6c565b915061191b82611e7e565b602082019050919050565b6000611933601e83611b6c565b915061193e82611ea7565b602082019050919050565b6000611956602083611b6c565b915061196182611ed0565b602082019050919050565b6000611979603183611b6c565b915061198482611ef9565b604082019050919050565b600061199c602983611b6c565b91506119a782611f48565b604082019050919050565b6119bb81611c9f565b82525050565b60006020820190506119d6600083018461189f565b92915050565b60006040820190506119f1600083018561189f565b6119fe60208301846119b2565b9392505050565b6000602082019050611a1a60008301846118ae565b92915050565b60006020820190508181036000830152611a39816118bd565b9050919050565b60006020820190508181036000830152611a59816118e0565b9050919050565b60006020820190508181036000830152611a7981611903565b9050919050565b60006020820190508181036000830152611a9981611926565b9050919050565b60006020820190508181036000830152611ab981611949565b9050919050565b60006020820190508181036000830152611ad98161196c565b9050919050565b60006020820190508181036000830152611af98161198f565b9050919050565b6000602082019050611b1560008301846119b2565b92915050565b6000611b25611b36565b9050611b318282611cb6565b919050565b6000604051905090565b600067ffffffffffffffff821115611b5b57611b5a611da0565b5b602082029050602081019050919050565b600082825260208201905092915050565b6000611b8882611c9f565b9150611b9383611c9f565b9250827fffffffffffffffffffffffffffffffffffffffffffffffffffffffffffffffff03821115611bc857611bc7611d42565b5b828201905092915050565b6000611bde82611c9f565b9150611be983611c9f565b9250817fffffffffffffffffffffffffffffffffffffffffffffffffffffffffffffffff0483118215151615611c2257611c21611d42565b5b828202905092915050565b6000611c3882611c9f565b9150611c4383611c9f565b925082821015611c5657611c55611d42565b5b828203905092915050565b6000611c6c82611c7f565b9050919050565b60008115159050919050565b600073ffffffffffffffffffffffffffffffffffffffff82169050919050565b6000819050919050565b600060ff82169050919050565b611cbf82611dcf565b810181811067ffffffffffffffff82111715611cde57611cdd611da0565b5b80604052505050565b6000611cf282611ca9565b915060ff821415611d0657611d05611d42565b5b600182019050919050565b6000611d1c82611c9f565b9150611d2783611c9f565b925082611d3757611d36611d71565b5b828206905092915050565b7f4e487b7100000000000000000000000000000000000000000000000000000000600052601160045260246000fd5b7f4e487b7100000000000000000000000000000000000000000000000000000000600052601260045260246000fd5b7f4e487b7100000000000000000000000000000000000000000000000000000000600052604160045260246000fd5b6000601f19601f8301169050919050565b7f4572726f723a20436865636b416d6f756e74206578636565647320646573746960008201527f6e6174696f6e27732062616c616e636500000000000000000000000000000000602082015250565b7f4f776e61626c653a206e6577206f776e657220697320746865207a65726f206160008201527f6464726573730000000000000000000000000000000000000000000000000000602082015250565b7f54696d65206973206f7665722e00000000000000000000000000000000000000600082015250565b7f4572726f723a2046756e647320686164206265656e20636c61696d65642e0000600082015250565b7f4f776e61626c653a2063616c6c6572206973206e6f7420746865206f776e6572600082015250565b7f4572726f723a20416d6f756e742061646465642065786365656473207468652060008201527f63617465676f72792062616c616e63652e000000000000000000000000000000602082015250565b7f4572726f723a2057616974206174206c6561737420616674657220666972737460008201527f20333020646179732e0000000000000000000000000000000000000000000000602082015250565b611fa081611c61565b8114611fab57600080fd5b50565b611fb781611c73565b8114611fc257600080fd5b50565b611fce81611c9f565b8114611fd957600080fd5b5056fea2646970667358221220313f79c5d7aee555fa94894b67a9c1d1aeb1d32d521cf5ada70533b9cbc6225764736f6c63430008010033",
  "immutableReferences": {},
  "source": "// SPDX-License-Identifier: MIT\npragma solidity >=0.8.0 <0.9.0;\n\nimport \"@openzeppelin/contracts/access/Ownable.sol\";\nimport \"@openzeppelin/contracts/token/ERC20/IERC20.sol\";\nimport \"./ABDKMath64x64.sol\";\n\ncontract SpliterTeam is Ownable{\n  uint[3] setCategoryBalance;\n  uint[3] setCategoryAccumalated;\n   \n  struct TEMPLATE {\n    address beneficiary;\n    uint amount;\n    uint category;\n    uint vestingTime;\n    uint dailyIssue;\n    uint startDate;\n    uint lastClaim;\n  }\n\n  mapping (address => TEMPLATE) user;\n  address valeria; \n  IERC20 VAL;\n\n\n  constructor(address _valeria, uint _balanceOfMarketing, uint _balanceOfTeams, uint _balanceOfConsultants) {\n    valeria = _valeria;\n    setCategoryBalance[0] = _balanceOfMarketing;\n    setCategoryBalance[1] = _balanceOfTeams;\n    setCategoryBalance[2] = _balanceOfConsultants;\n    VAL = IERC20(valeria);\n  }\n\n  function insertListOf(uint category, TEMPLATE[] memory _subwhitelist) external onlyOwner returns(bool) {\n      for (uint8 i = 0; i <_subwhitelist.length; i++) {\n        user[_subwhitelist[i].beneficiary] = TEMPLATE(\n          _subwhitelist[i].beneficiary, \n          _subwhitelist[i].amount, \n          category, \n          (block.timestamp + 540 * 1 days), \n          ABDKMath64x64.mulu(ABDKMath64x64.inv(ABDKMath64x64.fromUInt(540)), _subwhitelist[i].amount), \n          block.timestamp, \n          block.timestamp);\n        setCategoryAccumalated[category] += _subwhitelist[i].amount;\n        _checkAmount(setCategoryAccumalated[category], setCategoryBalance[category]);  \n      }\n    return true;\n  }\n\n  function addProfitToBeneficiary(address _beneficiary, uint _amount) external onlyOwner returns (bool){\n    user[_beneficiary].amount += _amount;\n    setCategoryAccumalated[user[_beneficiary].category] += _amount;\n    require(setCategoryAccumalated[user[_beneficiary].category] <= setCategoryBalance[user[_beneficiary].category], \"Error: Amount added exceeds the category balance.\");\n    return true;\n  }\n\n  function subProfitToBeneficiary(address _beneficiary, uint _amount) external onlyOwner returns(bool) {\n    require(_amount <= user[_beneficiary].amount);\n    setCategoryAccumalated[user[_beneficiary].category] -= _amount;\n    return true;\n  }\n\n  function getTotalBalanceForDistribuition() external view returns(uint) {\n    return VAL.balanceOf(address(this));\n  }\n\n  function accumulatedRelease() external view returns (uint) { \n      return user[msg.sender].dailyIssue * daysPassed(user[msg.sender].startDate); \n  }\n\n  function toRelease() external view returns(uint) {\n    return user[msg.sender].amount;\n  }\n\n  function totalClaimed() external view returns(uint) {\n    uint validDaysToPay = daysPassed(user[msg.sender].startDate) - (daysPassed(user[msg.sender].startDate) % 30);\n    return user[msg.sender].dailyIssue * validDaysToPay;\n  }\n\n  function claim() external returns(bool) {\n    require(daysPassed(user[msg.sender].startDate) > 30, \"Error: Wait at least after first 30 days.\");\n    uint validDaysToPay = daysPassed(user[msg.sender].lastClaim) - (daysPassed(user[msg.sender].lastClaim) % 30);\n    user[msg.sender].amount -= user[msg.sender].dailyIssue * validDaysToPay;\n    require(user[msg.sender].amount > 0, \"Error: Funds had been claimed.\");\n    VAL.transfer(msg.sender, user[msg.sender].dailyIssue * validDaysToPay);\n    user[msg.sender].lastClaim = block.timestamp;\n    return true;\n  }\n\n  function daysPassed(uint startDate) private view returns(uint) {\n    require(startDate <= block.timestamp);\n    require(540 - ((block.timestamp - startDate) * 1 days) > 0, \"Time is over.\");\n    return (block.timestamp - startDate) * 1 days;\n  }\n\n  function _checkAmount(uint _check, uint _amount) private pure {\n      if(_check > _amount) {\n        revert(\"Error: CheckAmount exceeds destination's balance\");\n      }\n\n  }\n  \n}\n",
  "sourcePath": "/home/peter/Documents/project/Valeria/contracts/SpliterTeam.sol",
  "compiler": {
    "name": "solc",
    "version": "0.8.1+commit.df193b15.Emscripten.clang"
  },
  "schemaVersion": "3.4.3",
  "updatedAt": "2022-01-23T18:47:33.359Z",
  "devdoc": {
    "kind": "dev",
    "methods": {
      "owner()": {
        "details": "Returns the address of the current owner."
      },
      "renounceOwnership()": {
        "details": "Leaves the contract without owner. It will not be possible to call `onlyOwner` functions anymore. Can only be called by the current owner. NOTE: Renouncing ownership will leave the contract without an owner, thereby removing any functionality that is only available to the owner."
      },
      "transferOwnership(address)": {
        "details": "Transfers ownership of the contract to a new account (`newOwner`). Can only be called by the current owner."
      }
    },
    "version": 1
  },
  "userdoc": {
    "kind": "user",
    "methods": {},
    "version": 1
  }
}