{
  "contractName": "SpliterTeam",
  "abi": [
    {
      "inputs": [
        {
          "internalType": "address",
          "name": "_valeria",
          "type": "address"
        },
        {
          "internalType": "uint256",
          "name": "_balanceOfMarketing",
          "type": "uint256"
        },
        {
          "internalType": "uint256",
          "name": "_balanceOfTeams",
          "type": "uint256"
        },
        {
          "internalType": "uint256",
          "name": "_balanceOfConsultants",
          "type": "uint256"
        }
      ],
      "stateMutability": "nonpayable",
      "type": "constructor"
    },
    {
      "anonymous": false,
      "inputs": [
        {
          "indexed": true,
          "internalType": "address",
          "name": "previousOwner",
          "type": "address"
        },
        {
          "indexed": true,
          "internalType": "address",
          "name": "newOwner",
          "type": "address"
        }
      ],
      "name": "OwnershipTransferred",
      "type": "event"
    },
    {
      "inputs": [],
      "name": "owner",
      "outputs": [
        {
          "internalType": "address",
          "name": "",
          "type": "address"
        }
      ],
      "stateMutability": "view",
      "type": "function"
    },
    {
      "inputs": [],
      "name": "renounceOwnership",
      "outputs": [],
      "stateMutability": "nonpayable",
      "type": "function"
    },
    {
      "inputs": [
        {
          "internalType": "address",
          "name": "newOwner",
          "type": "address"
        }
      ],
      "name": "transferOwnership",
      "outputs": [],
      "stateMutability": "nonpayable",
      "type": "function"
    },
    {
      "inputs": [
        {
          "internalType": "uint256",
          "name": "category",
          "type": "uint256"
        },
        {
          "components": [
            {
              "internalType": "address",
              "name": "beneficiary",
              "type": "address"
            },
            {
              "internalType": "uint256",
              "name": "amount",
              "type": "uint256"
            },
            {
              "internalType": "uint256",
              "name": "category",
              "type": "uint256"
            },
            {
              "internalType": "uint256",
              "name": "vestingTime",
              "type": "uint256"
            },
            {
              "internalType": "uint256",
              "name": "dailyIssue",
              "type": "uint256"
            },
            {
              "internalType": "uint256",
              "name": "startDate",
              "type": "uint256"
            },
            {
              "internalType": "uint256",
              "name": "lastClaim",
              "type": "uint256"
            }
          ],
          "internalType": "struct SpliterTeam.TEMPLATE[]",
          "name": "_subwhitelist",
          "type": "tuple[]"
        }
      ],
      "name": "insertListOf",
      "outputs": [
        {
          "internalType": "bool",
          "name": "",
          "type": "bool"
        }
      ],
      "stateMutability": "nonpayable",
      "type": "function"
    },
    {
      "inputs": [
        {
          "internalType": "address",
          "name": "_beneficiary",
          "type": "address"
        },
        {
          "internalType": "uint256",
          "name": "_amount",
          "type": "uint256"
        }
      ],
      "name": "addProfitToBeneficiary",
      "outputs": [
        {
          "internalType": "bool",
          "name": "",
          "type": "bool"
        }
      ],
      "stateMutability": "nonpayable",
      "type": "function"
    },
    {
      "inputs": [
        {
          "internalType": "address",
          "name": "_beneficiary",
          "type": "address"
        },
        {
          "internalType": "uint256",
          "name": "_amount",
          "type": "uint256"
        }
      ],
      "name": "subProfitToBeneficiary",
      "outputs": [
        {
          "internalType": "bool",
          "name": "",
          "type": "bool"
        }
      ],
      "stateMutability": "nonpayable",
      "type": "function"
    },
    {
      "inputs": [],
      "name": "getTotalBalanceForDistribuition",
      "outputs": [
        {
          "internalType": "uint256",
          "name": "",
          "type": "uint256"
        }
      ],
      "stateMutability": "view",
      "type": "function"
    },
    {
      "inputs": [],
      "name": "accumulatedRelease",
      "outputs": [
        {
          "internalType": "uint256",
          "name": "",
          "type": "uint256"
        }
      ],
      "stateMutability": "view",
      "type": "function"
    },
    {
      "inputs": [],
      "name": "toRelease",
      "outputs": [
        {
          "internalType": "uint256",
          "name": "",
          "type": "uint256"
        }
      ],
      "stateMutability": "view",
      "type": "function"
    },
    {
      "inputs": [],
      "name": "totalClaimed",
      "outputs": [
        {
          "internalType": "uint256",
          "name": "",
          "type": "uint256"
        }
      ],
      "stateMutability": "view",
      "type": "function"
    },
    {
      "inputs": [],
      "name": "claim",
      "outputs": [
        {
          "internalType": "bool",
          "name": "",
          "type": "bool"
        }
      ],
      "stateMutability": "nonpayable",
      "type": "function"
    }
  ],
  "bytecode": "0x608060405234801561001057600080fd5b5060405161138f38038061138f83398101604081905261002f916100e6565b610051610043640100000000610092810204565b640100000000610096810204565b60088054600160a060020a03958616600160a060020a031991821617918290556001949094556002929092556003556009805491909316911617905561012f565b3390565b60008054600160a060020a03838116600160a060020a0319831681178455604051919092169283917f8be0079c531659141344cd1fd0a4f28419497f9722a3daafe3b4186f6b6457e09190a35050565b600080600080608085870312156100fb578384fd5b8451600160a060020a0381168114610111578485fd5b60208601516040870151606090970151919890975090945092505050565b6112518061013e6000396000f3fe608060405234801561001057600080fd5b50600436106100c6576000357c0100000000000000000000000000000000000000000000000000000000900480638da5cb5b1161008e5780638da5cb5b14610123578063aa8f245f14610138578063d459e4521461014b578063d54ad2a114610153578063d793fa5d1461015b578063f2fde38b1461016e576100c6565b80631aa93ef8146100cb5780632db00e51146100f45780634e71d92d146101095780634eddca9014610111578063715018a614610119575b600080fd5b6100de6100d9366004610d40565b610181565b6040516100eb9190610ede565b60405180910390f35b6100fc610304565b6040516100eb9190611100565b6100de610342565b6100fc610527565b6101216105c1565b005b61012b61060f565b6040516100eb9190610eb1565b6100de610146366004610da1565b61061e565b6100fc6108f8565b6100fc61090e565b6100de610169366004610d40565b610986565b61012161017c366004610d1f565b610a52565b600061018b610ac9565b600160a060020a031661019c61060f565b600160a060020a0316146101ce5760405160e560020a62461bcd0281526004016101c590611011565b60405180910390fd5b600160a060020a038316600090815260076020526040812060010180548492906101f990849061113a565b9091555050600160a060020a0383166000908152600760205260409020600201548290600490600381106102405760e060020a634e487b7102600052603260045260246000fd5b016000828254610250919061113a565b9091555050600160a060020a038316600090815260076020526040902060020154600190600381106102955760e060020a634e487b7102600052603260045260246000fd5b0154600160a060020a038416600090815260076020526040902060020154600490600381106102d75760e060020a634e487b7102600052603260045260246000fd5b015411156102fa5760405160e560020a62461bcd0281526004016101c590611046565b5060015b92915050565b3360009081526007602052604081206005015461032090610acd565b3360009081526007602052604090206004015461033d9190611166565b905090565b33600090815260076020526040812060050154601e9061036190610acd565b116103815760405160e560020a62461bcd0281526004016101c5906110a3565b33600090815260076020526040812060060154601e906103a090610acd565b6103aa91906111bc565b336000908152600760205260409020600601546103c690610acd565b6103d09190611185565b336000908152600760205260409020600401549091506103f1908290611166565b3360009081526007602052604081206001018054909190610413908490611185565b90915550503360009081526007602052604090206001015461044a5760405160e560020a62461bcd0281526004016101c590610fda565b60095433600081815260076020526040902060040154600160a060020a039092169163a9059cbb919061047e908590611166565b6040518363ffffffff167c01000000000000000000000000000000000000000000000000000000000281526004016104b7929190610ec5565b602060405180830381600087803b1580156104d157600080fd5b505af11580156104e5573d6000803e3d6000fd5b505050506040513d601f19601f820116820180604052508101906105099190610d69565b50503360009081526007602052604090204260069091015550600190565b6009546040517f70a08231000000000000000000000000000000000000000000000000000000008152600091600160a060020a0316906370a0823190610571903090600401610eb1565b60206040518083038186803b15801561058957600080fd5b505afa15801561059d573d6000803e3d6000fd5b505050506040513d601f19601f8201168201806040525081019061033d9190610d89565b6105c9610ac9565b600160a060020a03166105da61060f565b600160a060020a0316146106035760405160e560020a62461bcd0281526004016101c590611011565b61060d6000610b34565b565b600054600160a060020a031690565b6000610628610ac9565b600160a060020a031661063961060f565b600160a060020a0316146106625760405160e560020a62461bcd0281526004016101c590611011565b60005b82518160ff1610156108ee576040518060e00160405280848360ff16815181106106a25760e060020a634e487b7102600052603260045260246000fd5b602002602001015160000151600160a060020a03168152602001848360ff16815181106106e25760e060020a634e487b7102600052603260045260246000fd5b6020026020010151602001518152602001858152602001426302c7ea00610709919061113a565b815260200161075b61072461071f61021c610b91565b610bb7565b868560ff168151811061074a5760e060020a634e487b7102600052603260045260246000fd5b602002602001015160200151610c3d565b81526020014281526020014281525060076000858460ff16815181106107945760e060020a634e487b7102600052603260045260246000fd5b60209081029190910181015151600160a060020a0390811683528282019390935260409182016000208451815473ffffffffffffffffffffffffffffffffffffffff1916941693909317835583015160018301558201516002820155606082015160038201556080820151600482015560a0820151600582015560c0909101516006909101558251839060ff83169081106108425760e060020a634e487b7102600052603260045260246000fd5b602002602001015160200151600485600381106108725760e060020a634e487b7102600052603260045260246000fd5b016000828254610882919061113a565b909155506108dc9050600485600381106108af5760e060020a634e487b7102600052603260045260246000fd5b0154600186600381106108d55760e060020a634e487b7102600052603260045260246000fd5b0154610ce1565b806108e68161119c565b915050610665565b5060019392505050565b3360009081526007602052604090206001015490565b336000908152600760205260408120600501548190601e9061092f90610acd565b61093991906111bc565b3360009081526007602052604090206005015461095590610acd565b61095f9190611185565b33600090815260076020526040902060040154909150610980908290611166565b91505090565b6000610990610ac9565b600160a060020a03166109a161060f565b600160a060020a0316146109ca5760405160e560020a62461bcd0281526004016101c590611011565b600160a060020a0383166000908152600760205260409020600101548211156109f257600080fd5b600160a060020a038316600090815260076020526040902060020154829060049060038110610a345760e060020a634e487b7102600052603260045260246000fd5b016000828254610a449190611185565b909155506001949350505050565b610a5a610ac9565b600160a060020a0316610a6b61060f565b600160a060020a031614610a945760405160e560020a62461bcd0281526004016101c590611011565b600160a060020a038116610abd5760405160e560020a62461bcd0281526004016101c590610f46565b610ac681610b34565b50565b3390565b60008062015180610ade8442611185565b610ae89190611152565b610af49061021c611185565b11610b145760405160e560020a62461bcd0281526004016101c590610fa3565b62015180610b228342611185565b610b2c9190611152565b90505b919050565b60008054600160a060020a0383811673ffffffffffffffffffffffffffffffffffffffff19831681178455604051919092169283917f8be0079c531659141344cd1fd0a4f28419497f9722a3daafe3b4186f6b6457e09190a35050565b6000677fffffffffffffff821115610ba857600080fd5b50680100000000000000000290565b600081600f0b60001415610bca57600080fd5b600082600f0b70010000000000000000000000000000000081610c005760e060020a634e487b7102600052601260045260246000fd5b0590506f7fffffffffffffffffffffffffffffff198112801590610c3457506f7fffffffffffffffffffffffffffffff8113155b610b2c57600080fd5b600081610c4c575060006102fe565b600083600f0b1215610c5d57600080fd5b68010000000000000000600f84900b6fffffffffffffffffffffffffffffffff84168102919091049070010000000000000000000000000000000084040277ffffffffffffffffffffffffffffffffffffffffffffffff811115610cc057600080fd5b68010000000000000000028119811115610cd957600080fd5b019392505050565b80821115610d045760405160e560020a62461bcd0281526004016101c590610ee9565b5050565b8035600160a060020a0381168114610b2f57600080fd5b600060208284031215610d30578081fd5b610d3982610d08565b9392505050565b60008060408385031215610d52578081fd5b610d5b83610d08565b946020939093013593505050565b600060208284031215610d7a578081fd5b81518015158114610d39578182fd5b600060208284031215610d9a578081fd5b5051919050565b6000806040808486031215610db4578283fd5b8335925060208085013567ffffffffffffffff80821115610dd3578485fd5b818701915087601f830112610de6578485fd5b813581811115610df857610df8611202565b610e058485830201611109565b818152848101925083850160e0808402860187018c1015610e24578889fd5b8895505b83861015610ea05780828d031215610e3e578889fd5b610e4781611109565b610e5083610d08565b815282880135888201528883013589820152606080840135908201526080808401359082015260a0808401359082015260c080840135908201528552600195909501949386019390810190610e28565b50979a909950975050505050505050565b600160a060020a0391909116815260200190565b600160a060020a03929092168252602082015260400190565b901515815260200190565b60208082526030908201527f4572726f723a20436865636b416d6f756e74206578636565647320646573746960408201527f6e6174696f6e27732062616c616e636500000000000000000000000000000000606082015260800190565b60208082526026908201527f4f776e61626c653a206e6577206f776e657220697320746865207a65726f206160408201527f6464726573730000000000000000000000000000000000000000000000000000606082015260800190565b6020808252600d908201527f54696d65206973206f7665722e00000000000000000000000000000000000000604082015260600190565b6020808252601e908201527f4572726f723a2046756e647320686164206265656e20636c61696d65642e0000604082015260600190565b6020808252818101527f4f776e61626c653a2063616c6c6572206973206e6f7420746865206f776e6572604082015260600190565b60208082526031908201527f4572726f723a20416d6f756e742061646465642065786365656473207468652060408201527f63617465676f72792062616c616e63652e000000000000000000000000000000606082015260800190565b60208082526029908201527f4572726f723a2057616974206174206c6561737420616674657220666972737460408201527f20333020646179732e0000000000000000000000000000000000000000000000606082015260800190565b90815260200190565b604051601f8201601f1916810167ffffffffffffffff8111828210171561113257611132611202565b604052919050565b6000821982111561114d5761114d6111d0565b500190565b600082611161576111616111e9565b500490565b6000816000190483118215151615611180576111806111d0565b500290565b600082821015611197576111976111d0565b500390565b600060ff821660ff8114156111b3576111b36111d0565b60010192915050565b6000826111cb576111cb6111e9565b500690565b60e060020a634e487b7102600052601160045260246000fd5b60e060020a634e487b7102600052601260045260246000fd5b60e060020a634e487b7102600052604160045260246000fdfea26469706673582212208c58d651f16af06e10c261a712e4c5a31811a33d83d90416daa8997ac5df352d64736f6c63430008010033",
  "immutableReferences": {},
  "source": "// SPDX-License-Identifier: MIT\npragma solidity >=0.8.0 <0.9.0;\n\nimport \"@openzeppelin/contracts/access/Ownable.sol\";\nimport \"@openzeppelin/contracts/token/ERC20/IERC20.sol\";\nimport \"./ABDKMath64x64.sol\";\n\ncontract SpliterTeam is Ownable{\n  uint[3] setCategoryBalance;\n  uint[3] setCategoryAccumalated;\n   \n  struct TEMPLATE {\n    address beneficiary;\n    uint amount;\n    uint category;\n    uint vestingTime;\n    uint dailyIssue;\n    uint startDate;\n    uint lastClaim;\n  }\n\n  mapping (address => TEMPLATE) user;\n  address valeria; \n  IERC20 VAL;\n\n\n  constructor(address _valeria, uint _balanceOfMarketing, uint _balanceOfTeams, uint _balanceOfConsultants) {\n    valeria = _valeria;\n    setCategoryBalance[0] = _balanceOfMarketing;\n    setCategoryBalance[1] = _balanceOfTeams;\n    setCategoryBalance[2] = _balanceOfConsultants;\n    VAL = IERC20(valeria);\n  }\n\n  function insertListOf(uint category, TEMPLATE[] memory _subwhitelist) external onlyOwner returns(bool) {\n      for (uint8 i = 0; i <_subwhitelist.length; i++) {\n        user[_subwhitelist[i].beneficiary] = TEMPLATE(\n          _subwhitelist[i].beneficiary, \n          _subwhitelist[i].amount, \n          category, \n          (block.timestamp + 540 * 1 days), \n          ABDKMath64x64.mulu(ABDKMath64x64.inv(ABDKMath64x64.fromUInt(540)), _subwhitelist[i].amount), \n          block.timestamp, \n          block.timestamp);\n        setCategoryAccumalated[category] += _subwhitelist[i].amount;\n        _checkAmount(setCategoryAccumalated[category], setCategoryBalance[category]);  \n      }\n    return true;\n  }\n\n  function addProfitToBeneficiary(address _beneficiary, uint _amount) external onlyOwner returns (bool){\n    user[_beneficiary].amount += _amount;\n    setCategoryAccumalated[user[_beneficiary].category] += _amount;\n    require(setCategoryAccumalated[user[_beneficiary].category] <= setCategoryBalance[user[_beneficiary].category], \"Error: Amount added exceeds the category balance.\");\n    return true;\n  }\n\n  function subProfitToBeneficiary(address _beneficiary, uint _amount) external onlyOwner returns(bool) {\n    require(_amount <= user[_beneficiary].amount);\n    setCategoryAccumalated[user[_beneficiary].category] -= _amount;\n    return true;\n  }\n\n  function getTotalBalanceForDistribuition() external view returns(uint) {\n    return VAL.balanceOf(address(this));\n  }\n\n  function accumulatedRelease() external view returns (uint) { \n      return user[msg.sender].dailyIssue * daysPassed(user[msg.sender].startDate); \n  }\n\n  function toRelease() external view returns(uint) {\n    return user[msg.sender].amount;\n  }\n\n  function totalClaimed() external view returns(uint) {\n    uint validDaysToPay = daysPassed(user[msg.sender].startDate) - (daysPassed(user[msg.sender].startDate) % 30);\n    return user[msg.sender].dailyIssue * validDaysToPay;\n  }\n\n  function claim() external returns(bool) {\n    require(daysPassed(user[msg.sender].startDate) > 30, \"Error: Wait at least after first 30 days.\");\n    uint validDaysToPay = daysPassed(user[msg.sender].lastClaim) - (daysPassed(user[msg.sender].lastClaim) % 30);\n    user[msg.sender].amount -= user[msg.sender].dailyIssue * validDaysToPay;\n    require(user[msg.sender].amount > 0, \"Error: Funds had been claimed.\");\n    VAL.transfer(msg.sender, user[msg.sender].dailyIssue * validDaysToPay);\n    user[msg.sender].lastClaim = block.timestamp;\n    return true;\n  }\n\n  function daysPassed(uint startDate) private view returns(uint) {\n    require(540 - ((block.timestamp - startDate) / 1 days) > 0, \"Time is over.\");\n    return (block.timestamp - startDate) / 1 days;\n  }\n\n  function _checkAmount(uint _check, uint _amount) private pure {\n      if(_check > _amount) {\n        revert(\"Error: CheckAmount exceeds destination's balance\");\n      }\n\n  }\n  \n}\n",
  "sourcePath": "/home/peter/Documents/projects/Valeria/contracts/SpliterTeam.sol",
  "compiler": {
    "name": "solc",
    "version": "0.8.1+commit.df193b15.Emscripten.clang"
  },
  "schemaVersion": "3.4.3",
  "updatedAt": "2022-03-02T03:37:39.612Z",
  "devdoc": {
    "kind": "dev",
    "methods": {
      "owner()": {
        "details": "Returns the address of the current owner."
      },
      "renounceOwnership()": {
        "details": "Leaves the contract without owner. It will not be possible to call `onlyOwner` functions anymore. Can only be called by the current owner. NOTE: Renouncing ownership will leave the contract without an owner, thereby removing any functionality that is only available to the owner."
      },
      "transferOwnership(address)": {
        "details": "Transfers ownership of the contract to a new account (`newOwner`). Can only be called by the current owner."
      }
    },
    "version": 1
  },
  "userdoc": {
    "kind": "user",
    "methods": {},
    "version": 1
  }
}