{
  "contractName": "Valeria",
  "abi": [
    {
      "inputs": [],
      "stateMutability": "nonpayable",
      "type": "constructor"
    },
    {
      "anonymous": false,
      "inputs": [
        {
          "indexed": true,
          "internalType": "address",
          "name": "owner",
          "type": "address"
        },
        {
          "indexed": true,
          "internalType": "address",
          "name": "spender",
          "type": "address"
        },
        {
          "indexed": false,
          "internalType": "uint256",
          "name": "value",
          "type": "uint256"
        }
      ],
      "name": "Approval",
      "type": "event"
    },
    {
      "anonymous": false,
      "inputs": [
        {
          "indexed": true,
          "internalType": "address",
          "name": "previousOwner",
          "type": "address"
        },
        {
          "indexed": true,
          "internalType": "address",
          "name": "newOwner",
          "type": "address"
        }
      ],
      "name": "OwnershipTransferred",
      "type": "event"
    },
    {
      "anonymous": false,
      "inputs": [
        {
          "indexed": true,
          "internalType": "address",
          "name": "from",
          "type": "address"
        },
        {
          "indexed": true,
          "internalType": "address",
          "name": "to",
          "type": "address"
        },
        {
          "indexed": false,
          "internalType": "uint256",
          "name": "value",
          "type": "uint256"
        }
      ],
      "name": "Transfer",
      "type": "event"
    },
    {
      "inputs": [
        {
          "internalType": "address",
          "name": "owner",
          "type": "address"
        },
        {
          "internalType": "address",
          "name": "spender",
          "type": "address"
        }
      ],
      "name": "allowance",
      "outputs": [
        {
          "internalType": "uint256",
          "name": "",
          "type": "uint256"
        }
      ],
      "stateMutability": "view",
      "type": "function",
      "constant": true
    },
    {
      "inputs": [
        {
          "internalType": "address",
          "name": "spender",
          "type": "address"
        },
        {
          "internalType": "uint256",
          "name": "amount",
          "type": "uint256"
        }
      ],
      "name": "approve",
      "outputs": [
        {
          "internalType": "bool",
          "name": "",
          "type": "bool"
        }
      ],
      "stateMutability": "nonpayable",
      "type": "function"
    },
    {
      "inputs": [
        {
          "internalType": "address",
          "name": "account",
          "type": "address"
        }
      ],
      "name": "balanceOf",
      "outputs": [
        {
          "internalType": "uint256",
          "name": "",
          "type": "uint256"
        }
      ],
      "stateMutability": "view",
      "type": "function",
      "constant": true
    },
    {
      "inputs": [],
      "name": "decimals",
      "outputs": [
        {
          "internalType": "uint8",
          "name": "",
          "type": "uint8"
        }
      ],
      "stateMutability": "view",
      "type": "function",
      "constant": true
    },
    {
      "inputs": [
        {
          "internalType": "address",
          "name": "spender",
          "type": "address"
        },
        {
          "internalType": "uint256",
          "name": "subtractedValue",
          "type": "uint256"
        }
      ],
      "name": "decreaseAllowance",
      "outputs": [
        {
          "internalType": "bool",
          "name": "",
          "type": "bool"
        }
      ],
      "stateMutability": "nonpayable",
      "type": "function"
    },
    {
      "inputs": [
        {
          "internalType": "address",
          "name": "spender",
          "type": "address"
        },
        {
          "internalType": "uint256",
          "name": "addedValue",
          "type": "uint256"
        }
      ],
      "name": "increaseAllowance",
      "outputs": [
        {
          "internalType": "bool",
          "name": "",
          "type": "bool"
        }
      ],
      "stateMutability": "nonpayable",
      "type": "function"
    },
    {
      "inputs": [],
      "name": "name",
      "outputs": [
        {
          "internalType": "string",
          "name": "",
          "type": "string"
        }
      ],
      "stateMutability": "view",
      "type": "function",
      "constant": true
    },
    {
      "inputs": [],
      "name": "owner",
      "outputs": [
        {
          "internalType": "address",
          "name": "",
          "type": "address"
        }
      ],
      "stateMutability": "view",
      "type": "function",
      "constant": true
    },
    {
      "inputs": [],
      "name": "renounceOwnership",
      "outputs": [],
      "stateMutability": "nonpayable",
      "type": "function"
    },
    {
      "inputs": [],
      "name": "symbol",
      "outputs": [
        {
          "internalType": "string",
          "name": "",
          "type": "string"
        }
      ],
      "stateMutability": "view",
      "type": "function",
      "constant": true
    },
    {
      "inputs": [],
      "name": "totalSupply",
      "outputs": [
        {
          "internalType": "uint256",
          "name": "",
          "type": "uint256"
        }
      ],
      "stateMutability": "view",
      "type": "function",
      "constant": true
    },
    {
      "inputs": [
        {
          "internalType": "address",
          "name": "recipient",
          "type": "address"
        },
        {
          "internalType": "uint256",
          "name": "amount",
          "type": "uint256"
        }
      ],
      "name": "transfer",
      "outputs": [
        {
          "internalType": "bool",
          "name": "",
          "type": "bool"
        }
      ],
      "stateMutability": "nonpayable",
      "type": "function"
    },
    {
      "inputs": [
        {
          "internalType": "address",
          "name": "sender",
          "type": "address"
        },
        {
          "internalType": "address",
          "name": "recipient",
          "type": "address"
        },
        {
          "internalType": "uint256",
          "name": "amount",
          "type": "uint256"
        }
      ],
      "name": "transferFrom",
      "outputs": [
        {
          "internalType": "bool",
          "name": "",
          "type": "bool"
        }
      ],
      "stateMutability": "nonpayable",
      "type": "function"
    },
    {
      "inputs": [
        {
          "internalType": "address",
          "name": "newOwner",
          "type": "address"
        }
      ],
      "name": "transferOwnership",
      "outputs": [],
      "stateMutability": "nonpayable",
      "type": "function"
    },
    {
      "inputs": [],
      "name": "maxAmountByTx",
      "outputs": [
        {
          "internalType": "uint256",
          "name": "",
          "type": "uint256"
        }
      ],
      "stateMutability": "view",
      "type": "function",
      "constant": true
    },
    {
      "inputs": [
        {
          "internalType": "address",
          "name": "user",
          "type": "address"
        }
      ],
      "name": "exludeFromMaxToTransfer",
      "outputs": [],
      "stateMutability": "nonpayable",
      "type": "function"
    },
    {
      "inputs": [
        {
          "internalType": "address",
          "name": "user",
          "type": "address"
        }
      ],
      "name": "includeToMaxToTransfer",
      "outputs": [],
      "stateMutability": "nonpayable",
      "type": "function"
    },
    {
      "inputs": [
        {
          "internalType": "address",
          "name": "user",
          "type": "address"
        }
      ],
      "name": "isSpecialAddress",
      "outputs": [
        {
          "internalType": "bool",
          "name": "",
          "type": "bool"
        }
      ],
      "stateMutability": "view",
      "type": "function",
      "constant": true
    },
    {
      "inputs": [],
      "name": "totalSpecialAddress",
      "outputs": [
        {
          "internalType": "uint256",
          "name": "",
          "type": "uint256"
        }
      ],
      "stateMutability": "view",
      "type": "function",
      "constant": true
    },
    {
      "inputs": [
        {
          "internalType": "address",
          "name": "user",
          "type": "address"
        }
      ],
      "name": "get_AccToDay",
      "outputs": [
        {
          "internalType": "uint256",
          "name": "",
          "type": "uint256"
        }
      ],
      "stateMutability": "view",
      "type": "function",
      "constant": true
    }
  ],
  "bytecode": "0x60806040523480156200001157600080fd5b506040518060400160405280600781526020017f56414c45524941000000000000000000000000000000000000000000000000008152506040518060400160405280600381526020017f56414c00000000000000000000000000000000000000000000000000000000008152508160039080519060200190620000969291906200061e565b508051620000ac9060049060208401906200061e565b505050620000db620000cc62000172640100000000026401000000009004565b64010000000062000176810204565b62000101620000f264010000000062000172810204565b640100000000620001c8810204565b620001166000640100000000620001c8810204565b6200016c6200012d64010000000062000172810204565b6200014064010000000062000262810204565b6200014d90600a620007dd565b6200015d906301bc0fc5620008d5565b64010000000062000267810204565b62000996565b3390565b60058054600160a060020a03838116600160a060020a0319831681179093556040519116919082907f8be0079c531659141344cd1fd0a4f28419497f9722a3daafe3b4186f6b6457e090600090a35050565b620001db64010000000062000172810204565b600160a060020a0316620001f764010000000062000368810204565b600160a060020a03161462000243576040517f08c379a00000000000000000000000000000000000000000000000000000000081526004016200023a90620006c4565b60405180910390fd5b6200025e600682640100000000620007226200037782021704565b5050565b601290565b600160a060020a038216620002aa576040517f08c379a00000000000000000000000000000000000000000000000000000000081526004016200023a90620006f9565b620002c1600083836401000000006200045f810204565b8060026000828254620002d5919062000739565b9091555050600160a060020a038216600090815260208190526040812080548392906200030490849062000739565b9091555050604051600160a060020a038316906000907fddf252ad1be2c89b69c2b068fc378daa952ba7f163c4a11628f55a4df523b3ef906200034990859062000730565b60405180910390a36200025e6000838364010000000062000574810204565b600554600160a060020a031690565b600160a060020a0381166000908152602083905260408120548015620003a257600191505062000459565b5060018084018054808301825560009190915290620003c390829062000739565b600160a060020a03841660009081526020869052604090209081556001908101805460ff19168217905584018054849190839081106200042c577f4e487b7100000000000000000000000000000000000000000000000000000000600052603260045260246000fd5b600091825260208220018054600160a060020a031916600160a060020a0393909316929092179091559150505b92915050565b6200047a600684640100000000620007f4620005cb82021704565b6200056f5762000492640100000000620005e9810204565b8111156200049f57600080fd5b600160a060020a038316600090815260086020526040812054620004cd906001604060020a031642620008f7565b90506005620004de603c8362000754565b11156200052557600160a060020a03841660009081526008602052604081206001810191909155805467ffffffffffffffff1916426001604060020a03161790556200056d565b62000538640100000000620005e9810204565b600160a060020a0385166000908152600860205260409020600101546200056190849062000739565b11156200056d57600080fd5b505b505050565b6200058f600684640100000000620007f4620005cb82021704565b6200056f57600160a060020a03831660009081526008602052604081206001018054839290620005c190849062000739565b9091555050505050565b600160a060020a031660009081526020919091526040902054151590565b6000620005fe64010000000062000262810204565b6200060b90600a620007dd565b6200061990610bf0620008d5565b905090565b8280546200062c9062000911565b90600052602060002090601f0160209004810192826200065057600085556200069b565b82601f106200066b57805160ff19168380011785556200069b565b828001600101855582156200069b579182015b828111156200069b5782518255916020019190600101906200067e565b50620006a9929150620006ad565b5090565b5b80821115620006a95760008155600101620006ae565b6020808252818101527f4f776e61626c653a2063616c6c6572206973206e6f7420746865206f776e6572604082015260600190565b6020808252601f908201527f45524332303a206d696e7420746f20746865207a65726f206164647265737300604082015260600190565b90815260200190565b600082198211156200074f576200074f62000967565b500190565b60008262000789577f4e487b710000000000000000000000000000000000000000000000000000000081526012600452602481fd5b500490565b80825b6001808611620007a25750620007d4565b818704821115620007b757620007b762000967565b80861615620007c557918102915b50600290940493800262000791565b94509492505050565b6000620007f160001960ff851684620007f8565b9392505050565b6000826200080957506001620007f1565b816200081857506000620007f1565b81600181146200083157600281146200083c5762000870565b6001915050620007f1565b60ff84111562000850576200085062000967565b8360020a91508482111562000869576200086962000967565b50620007f1565b5060208310610133831016604e8410600b8410161715620008a8575081810a83811115620008a257620008a262000967565b620007f1565b620008b784848460016200078e565b808604821115620008cc57620008cc62000967565b02949350505050565b6000816000190483118215151615620008f257620008f262000967565b500290565b6000828210156200090c576200090c62000967565b500390565b6002810460018216806200092657607f821691505b6020821081141562000961577f4e487b7100000000000000000000000000000000000000000000000000000000600052602260045260246000fd5b50919050565b7f4e487b7100000000000000000000000000000000000000000000000000000000600052601160045260246000fd5b61141c80620009a66000396000f3fe608060405234801561001057600080fd5b5060043610610148576000357c010000000000000000000000000000000000000000000000000000000090048063715018a6116100ca578063a457c2d71161008e578063a457c2d71461025e578063a9059cbb14610271578063dd62ed3e14610284578063df5c76a514610297578063f2fde38b146102aa57610148565b8063715018a614610229578063752bb93e1461023157806375564f44146102395780638da5cb5b1461024157806395d89b411461025657610148565b806323b872dd1161011157806323b872dd146101c6578063313ce567146101d957806339509351146101ee57806348d8f8ad1461020157806370a082311461021657610148565b8062b6bd8d1461014d57806306fdde0314610176578063095ea7b31461018b5780630b13ace2146101ab57806318160ddd146101be575b600080fd5b61016061015b366004610daf565b6102bd565b60405161016d91906111ee565b60405180910390f35b61017e6102df565b60405161016d9190610e7e565b61019e610199366004610e36565b610371565b60405161016d9190610e73565b61019e6101b9366004610daf565b61038f565b61016061039c565b61019e6101d4366004610dfb565b6103a2565b6101e1610440565b60405161016d91906111f7565b61019e6101fc366004610e36565b610445565b61021461020f366004610daf565b610499565b005b610160610224366004610daf565b6104ea565b610214610505565b610160610553565b610160610564565b610249610585565b60405161016d9190610e5f565b61017e610594565b61019e61026c366004610e36565b6105a3565b61019e61027f366004610e36565b61061f565b610160610292366004610dc9565b610633565b6102146102a5366004610daf565b61065e565b6102146102b8366004610daf565b6106ab565b600160a060020a0381166000908152600860205260409020600101545b919050565b6060600380546102ee9061138f565b80601f016020809104026020016040519081016040528092919081815260200182805461031a9061138f565b80156103675780601f1061033c57610100808354040283529160200191610367565b820191906000526020600020905b81548152906001019060200180831161034a57829003601f168201915b5050505050905090565b600061038561037e610812565b8484610816565b5060015b92915050565b60006103896006836107f4565b60025490565b60006103af8484846108d0565b600160a060020a0384166000908152600160205260408120816103d0610812565b600160a060020a0316600160a060020a031681526020019081526020016000205490508281101561041f5760405160e560020a62461bcd02815260040161041690611045565b60405180910390fd5b6104338561042b610812565b858403610816565b60019150505b9392505050565b601290565b6000610385610452610812565b848460016000610460610812565b600160a060020a03908116825260208083019390935260409182016000908120918b16815292529020546104949190611205565b610816565b6104a1610812565b600160a060020a03166104b2610585565b600160a060020a0316146104db5760405160e560020a62461bcd028152600401610416906110a2565b6104e6600682610a03565b5050565b600160a060020a031660009081526020819052604090205490565b61050d610812565b600160a060020a031661051e610585565b600160a060020a0316146105475760405160e560020a62461bcd028152600401610416906110a2565b6105516000610c0a565b565b600061055f6006610c69565b905090565b600061056e610440565b61057990600a611288565b61055f90610bf0611359565b600554600160a060020a031690565b6060600480546102ee9061138f565b600080600160006105b2610812565b600160a060020a03908116825260208083019390935260409182016000908120918816815292529020549050828110156106015760405160e560020a62461bcd02815260040161041690611191565b61061561060c610812565b85858403610816565b5060019392505050565b600061038561062c610812565b84846108d0565b600160a060020a03918216600090815260016020908152604080832093909416825291909152205490565b610666610812565b600160a060020a0316610677610585565b600160a060020a0316146106a05760405160e560020a62461bcd028152600401610416906110a2565b6104e6600682610722565b6106b3610812565b600160a060020a03166106c4610585565b600160a060020a0316146106ed5760405160e560020a62461bcd028152600401610416906110a2565b600160a060020a0381166107165760405160e560020a62461bcd02815260040161041690610f2e565b61071f81610c0a565b50565b600160a060020a038116600090815260208390526040812054801561074b576001915050610389565b506001808401805480830182556000919091529061076a908290611205565b600160a060020a03841660009081526020869052604090209081556001908101805460ff19168217905584018054849190839081106107bc5760e060020a634e487b7102600052603260045260246000fd5b9060005260206000200160006101000a815481600160a060020a030219169083600160a060020a031602179055506000915050610389565b600160a060020a031660009081526020919091526040902054151590565b3390565b600160a060020a03831661083f5760405160e560020a62461bcd02815260040161041690611134565b600160a060020a0382166108685760405160e560020a62461bcd02815260040161041690610f8b565b600160a060020a0380841660008181526001602090815260408083209487168084529490915290819020849055517f8c5be1e5ebec7d5bd14f71427d1e84f3dd0314c0f7b2291e5b200ac8c7c3b925906108c39085906111ee565b60405180910390a3505050565b600160a060020a0383166108f95760405160e560020a62461bcd028152600401610416906110d7565b600160a060020a0382166109225760405160e560020a62461bcd02815260040161041690610ed1565b61092d838383610c70565b600160a060020a038316600090815260208190526040902054818110156109695760405160e560020a62461bcd02815260040161041690610fe8565b600160a060020a038085166000908152602081905260408082208585039055918516815290812080548492906109a0908490611205565b9250508190555082600160a060020a031684600160a060020a03167fddf252ad1be2c89b69c2b068fc378daa952ba7f163c4a11628f55a4df523b3ef846040516109ea91906111ee565b60405180910390a36109fd848484610d54565b50505050565b600160a060020a0381166000908152602083905260408120546001840154811415610a805783600101805480610a4c5760e060020a634e487b7102600052603160045260246000fd5b6000828152602090208101600019908101805473ffffffffffffffffffffffffffffffffffffffff19169055019055610bdd565b60018085018054600092610a9391611378565b81548110610ab45760e060020a634e487b7102600052603260045260246000fd5b600091825260209091200154600160a060020a0316905080600186810190610adc9085611378565b81548110610afd5760e060020a634e487b7102600052603260045260246000fd5b9060005260206000200160006101000a815481600160a060020a030219169083600160a060020a0316021790555084600101805480610b4f5760e060020a634e487b7102600052603160045260246000fd5b6000828152602081208201600019908101805473ffffffffffffffffffffffffffffffffffffffff1916905590910190915582908690600182810190610b959085611378565b81548110610bb65760e060020a634e487b7102600052603260045260246000fd5b6000918252602080832090910154600160a060020a03168352820192909252604001902055505b5050600160a060020a03166000908152602091909152604081209081556001908101805460ff1916905590565b60058054600160a060020a0383811673ffffffffffffffffffffffffffffffffffffffff19831681179093556040519116919082907f8be0079c531659141344cd1fd0a4f28419497f9722a3daafe3b4186f6b6457e090600090a35050565b6001015490565b610c7b6006846107f4565b610d4f57610c87610564565b811115610c9357600080fd5b600160a060020a038316600090815260086020526040812054610cc09067ffffffffffffffff1642611378565b90506005610ccf603c8361121d565b1115610d1557600160a060020a03841660009081526008602052604081206001810191909155805467ffffffffffffffff19164267ffffffffffffffff161790556109fd565b610d1d610564565b600160a060020a038516600090815260086020526040902060010154610d44908490611205565b11156109fd57600080fd5b505050565b610d5f6006846107f4565b610d4f57600160a060020a03831660009081526008602052604081206001018054839290610d8e908490611205565b9091555050505050565b8035600160a060020a03811681146102da57600080fd5b600060208284031215610dc0578081fd5b61043982610d98565b60008060408385031215610ddb578081fd5b610de483610d98565b9150610df260208401610d98565b90509250929050565b600080600060608486031215610e0f578081fd5b610e1884610d98565b9250610e2660208501610d98565b9150604084013590509250925092565b60008060408385031215610e48578182fd5b610e5183610d98565b946020939093013593505050565b600160a060020a0391909116815260200190565b901515815260200190565b6000602080835283518082850152825b81811015610eaa57858101830151858201604001528201610e8e565b81811115610ebb5783604083870101525b50601f01601f1916929092016040019392505050565b60208082526023908201527f45524332303a207472616e7366657220746f20746865207a65726f206164647260408201527f6573730000000000000000000000000000000000000000000000000000000000606082015260800190565b60208082526026908201527f4f776e61626c653a206e6577206f776e657220697320746865207a65726f206160408201527f6464726573730000000000000000000000000000000000000000000000000000606082015260800190565b60208082526022908201527f45524332303a20617070726f766520746f20746865207a65726f20616464726560408201527f7373000000000000000000000000000000000000000000000000000000000000606082015260800190565b60208082526026908201527f45524332303a207472616e7366657220616d6f756e742065786365656473206260408201527f616c616e63650000000000000000000000000000000000000000000000000000606082015260800190565b60208082526028908201527f45524332303a207472616e7366657220616d6f756e742065786365656473206160408201527f6c6c6f77616e6365000000000000000000000000000000000000000000000000606082015260800190565b6020808252818101527f4f776e61626c653a2063616c6c6572206973206e6f7420746865206f776e6572604082015260600190565b60208082526025908201527f45524332303a207472616e736665722066726f6d20746865207a65726f20616460408201527f6472657373000000000000000000000000000000000000000000000000000000606082015260800190565b60208082526024908201527f45524332303a20617070726f76652066726f6d20746865207a65726f2061646460408201527f7265737300000000000000000000000000000000000000000000000000000000606082015260800190565b60208082526025908201527f45524332303a2064656372656173656420616c6c6f77616e63652062656c6f7760408201527f207a65726f000000000000000000000000000000000000000000000000000000606082015260800190565b90815260200190565b60ff91909116815260200190565b60008219821115611218576112186113cd565b500190565b60008261123b5760e060020a634e487b710281526012600452602481fd5b500490565b80825b6001808611611252575061127f565b818704821115611264576112646113cd565b8086161561127157918102915b506002909404938002611243565b94509492505050565b600061043960001960ff8516846000826112a457506001610439565b816112b157506000610439565b81600181146112c757600281146112d1576112fe565b6001915050610439565b60ff8411156112e2576112e26113cd565b8360020a9150848211156112f8576112f86113cd565b50610439565b5060208310610133831016604e8410600b8410161715611331575081810a8381111561132c5761132c6113cd565b610439565b61133e8484846001611240565b808604821115611350576113506113cd565b02949350505050565b6000816000190483118215151615611373576113736113cd565b500290565b60008282101561138a5761138a6113cd565b500390565b6002810460018216806113a357607f821691505b602082108114156113c75760e060020a634e487b7102600052602260045260246000fd5b50919050565b60e060020a634e487b7102600052601160045260246000fdfea26469706673582212206ce3c43b75c034f59f8736cad83d29d28bc457bcc70dc6377926979b81a3971464736f6c63430008010033",
  "immutableReferences": {},
  "source": "// SPDX-License-Identifier: MIT\npragma solidity >=0.8.0 <0.9.0;\n\n/**\n  @author Pedro Machado\n  @title VALERIA TOKEN\n  @notice Governanza Token\n  @custom:address 0x0d652741d37d0FC70F17c923DD4de9eAdF02D6B2\n  @custom:genesisBlock 16123981\n */\n\n\nimport \"@openzeppelin/contracts/token/ERC20/ERC20.sol\";\nimport \"@openzeppelin/contracts/access/Ownable.sol\";\nimport \"./ItMaps.sol\";\n\ncontract Valeria is ERC20, Ownable {\n  using IterableMap for IterableMap.SpecialAddress;\n\n IterableMap.SpecialAddress private spa;\n\n  //add function that give permits to wallet. \n  //get totalAccBy(user);\n\n  struct SNAPSHOT {\n    uint64 firstTx;\n    uint dailyVolume;\n  }\n\n  mapping (address => SNAPSHOT) private _snapshot;\n\n  constructor() ERC20(\"VALERIA\", \"VAL\") {\n    exludeFromMaxToTransfer(_msgSender());\n    exludeFromMaxToTransfer(address(0));\n    _mint(_msgSender(), 29102021*10**decimals());\n  }\n\n  function maxAmountByTx() public view returns (uint){\n    return 3056*10**decimals();\n  }\n\n  function exludeFromMaxToTransfer(address user) public onlyOwner {\n    spa.insert(user);\n  }\n\n  //if the element exist exclude. \n  function includeToMaxToTransfer(address user) public onlyOwner {\n    spa.remove(user);\n  }\n\n  function isSpecialAddress(address user) public view returns(bool) {\n    return spa.contains(user);\n  }\n\n  function totalSpecialAddress() public view returns(uint) {\n    return spa._length();\n  }\n\n  function get_AccToDay(address user) public view returns(uint) {\n    return _snapshot[user].dailyVolume;\n  }\n\n  function _beforeTokenTransfer( address from, address , uint256 amount) internal override {\n    if (! spa.contains(from)) {\n      require(amount <= maxAmountByTx());\n      uint timeStamp = block.timestamp - uint(_snapshot[from].firstTx);\n      if (timeStamp / 1 minutes > 5) {//1440 minutes once deploy is done \n        _snapshot[from].dailyVolume = 0;\n        _snapshot[from].firstTx = uint64(block.timestamp);\n      }\n      else if (_snapshot[from].dailyVolume + amount > maxAmountByTx() ) {\n        revert();\n      }\n      \n    }\n\n  }\n\n  function _afterTokenTransfer(address from, address , uint256 amount) internal override {    \n      if (! spa.contains(from)) {\n        _snapshot[from].dailyVolume += amount;\n      }\n    } \n}\n",
  "sourcePath": "/home/peter/Documents/projects/Valeria/contracts/Valeria.sol",
  "compiler": {
    "name": "solc",
    "version": "0.8.1+commit.df193b15.Emscripten.clang"
  },
  "schemaVersion": "3.4.3",
  "updatedAt": "2022-03-04T02:33:14.082Z",
  "networkType": "ethereum",
  "devdoc": {
    "kind": "dev",
    "methods": {
      "allowance(address,address)": {
        "details": "See {IERC20-allowance}."
      },
      "approve(address,uint256)": {
        "details": "See {IERC20-approve}. Requirements: - `spender` cannot be the zero address."
      },
      "balanceOf(address)": {
        "details": "See {IERC20-balanceOf}."
      },
      "decimals()": {
        "details": "Returns the number of decimals used to get its user representation. For example, if `decimals` equals `2`, a balance of `505` tokens should be displayed to a user as `5.05` (`505 / 10 ** 2`). Tokens usually opt for a value of 18, imitating the relationship between Ether and Wei. This is the value {ERC20} uses, unless this function is overridden; NOTE: This information is only used for _display_ purposes: it in no way affects any of the arithmetic of the contract, including {IERC20-balanceOf} and {IERC20-transfer}."
      },
      "decreaseAllowance(address,uint256)": {
        "details": "Atomically decreases the allowance granted to `spender` by the caller. This is an alternative to {approve} that can be used as a mitigation for problems described in {IERC20-approve}. Emits an {Approval} event indicating the updated allowance. Requirements: - `spender` cannot be the zero address. - `spender` must have allowance for the caller of at least `subtractedValue`."
      },
      "increaseAllowance(address,uint256)": {
        "details": "Atomically increases the allowance granted to `spender` by the caller. This is an alternative to {approve} that can be used as a mitigation for problems described in {IERC20-approve}. Emits an {Approval} event indicating the updated allowance. Requirements: - `spender` cannot be the zero address."
      },
      "name()": {
        "details": "Returns the name of the token."
      },
      "owner()": {
        "details": "Returns the address of the current owner."
      },
      "renounceOwnership()": {
        "details": "Leaves the contract without owner. It will not be possible to call `onlyOwner` functions anymore. Can only be called by the current owner. NOTE: Renouncing ownership will leave the contract without an owner, thereby removing any functionality that is only available to the owner."
      },
      "symbol()": {
        "details": "Returns the symbol of the token, usually a shorter version of the name."
      },
      "totalSupply()": {
        "details": "See {IERC20-totalSupply}."
      },
      "transfer(address,uint256)": {
        "details": "See {IERC20-transfer}. Requirements: - `recipient` cannot be the zero address. - the caller must have a balance of at least `amount`."
      },
      "transferFrom(address,address,uint256)": {
        "details": "See {IERC20-transferFrom}. Emits an {Approval} event indicating the updated allowance. This is not required by the EIP. See the note at the beginning of {ERC20}. Requirements: - `sender` and `recipient` cannot be the zero address. - `sender` must have a balance of at least `amount`. - the caller must have allowance for ``sender``'s tokens of at least `amount`."
      },
      "transferOwnership(address)": {
        "details": "Transfers ownership of the contract to a new account (`newOwner`). Can only be called by the current owner."
      }
    },
    "version": 1
  },
  "userdoc": {
    "kind": "user",
    "methods": {},
    "version": 1
  }
}